:020000040800F2
:10000000D0260020451000083507000837070008F3
:100010003B0700083F0700084307000800000000F6
:10002000000000000000000000000000470700087A
:1000300049070008000000004B0700084D070008B2
:100040005F1000085F1000085F1000085F100008D4
:100050005F1000085F1000085F1000085F100008C4
:100060005F1000085F1000085F1000085F100008B4
:100070005F1000085F1000085F1000085F100008A4
:100080005F1000085F1000085F1000085F10000894
:100090005F1000085F1000085F1000085F10000884
:1000A0005F1000085F1000085F1000085F10000874
:1000B0005F1000085F1000085F1000085F10000864
:1000C0005F1000085F1000085F1000085F10000854
:1000D0005F100008B50F00085F1000085F100008EF
:1000E0005F1000085F1000085F1000085F10000834
:1000F0005F1000085F1000085F1000085F10000824
:100100005F1000085F1000085F1000085F10000813
:100110005F1000085F1000085F1000085F10000803
:100120005F1000085F1000085F1000085F100008F3
:1001300000F002F800F045F80AA090E8000C8244B4
:100140008344AAF10107DA4501D100F03AF8AFF291
:10015000090EBAE80F0013F0010F18BFFB1A43F0A5
:1001600001031847B4220000D4220000103A24BF33
:1001700078C878C1FAD8520724BF30C830C144BF0C
:1001800004680C607047000000230024002500264E
:10019000103A28BF78C1FBD8520728BF30C148BFEA
:1001A0000B607047642901F08587782901F0BE87CC
:1001B000732902F0A880002070471FB51FBD10B53D
:1001C00010BD02F0E2F81146FFF7F7FF00F05FF80C
:1001D00002F000F903B4FFF7F2FF03BC00F090FE59
:1001E00030B5024600200EE0C41C135D155C1555A9
:1001F0001354841C135D441C155D841C1555441C4C
:100200001355041D20B28842EEDB30BD10B5EBA0C3
:1002100001F0D2FE0A2000F046FEEAA001F0CCFE7A
:10022000322000F040FEEAA001F0C6FE322000F0CD
:100230003AFEEAA001F0C0FE642000F034FEEBA01C
:1002400001F0BAFE642000F02EFEF5A001F0B4FE2D
:100250000A2000F028FE2021F34801F0A5FF00202D
:10026000F249088010BD38B505460C462246F0A17B
:10027000684601F0ADFE6A46EE49EFA001F09CFE33
:10028000002028552946EEA001F096FE38BD1CB589
:1002900000F0CCFD4FF4A06000F0F4FE4FF4E1302C
:1002A00000F03CFE00F044FB00F066FBE5A001F02E
:1002B00083FEE74800F0C9FC04462146E5A001F0B2
:1002C0007BFEE94800F07BFC06463146E7A001F0E2
:1002D00073FEE548801C00F072FC06463146E3A040
:1002E00001F06AFE0026E04800F0AFFC0646DE485A
:1002F000001D00F0AAFC044622463146DEA001F0B3
:100300005BFE0120E2490860FFF780FF4FF4803672
:100310000024A1460020009040F27121052000F049
:100320006FFD4AE1DB480078022816D10020D94948
:100330000870D94A12780AB9012200E00022D74B8E
:1003400033F81210D44A12780AB9012200E00022D0
:10035000D34B03EB0230FFF786FF002700BF4C456D
:1003600002D14FF0010B12E0BF48001D00F06DFC00
:1003700004463846791CCFB2052807DD4FF0000B44
:100380004A462146C7A001F017FE00E0E7E700BF9C
:10039000002700BFB44800F058FC0646B6F5805F61
:1003A00013D2B44201D8301B02E0C4F5805030446F
:1003B0001FFA80FABAF1400F04DA00200190012000
:1003C000009001E0012001900CE03846791CCFB28A
:1003D000052806DD002001903146BDA001F0ECFDAE
:1003E00000E0D7E700BFBBF1000F73D001980028F1
:1003F000FBD00120A649091F08600025002700BF87
:10040000B44222D2A64AA44B1B7802EB0332A34B80
:10041000DFF884C29CF800C033F81C30D118924A2F
:100420000832A018524600F0E1FA054660191FFA9A
:1004300080F89A489849097830F81100284497497B
:10044000954A127821F812003BE0954BDFF848C23C
:100450009CF800C003EB0C33DFF840C2DFF838E251
:100460009EF800E03CF81EC003EB0C01C4F580537D
:100470009AB27D4B0833E01800F0B8FA0546884878
:10048000854B1B7800EB0330844BDFF80CC29CF8E3
:1004900000C033F81C3018444119B2B27248083019
:1004A00000F0A4FA804605EB080085B27B487A4943
:1004B000097830F8110028447849774A127821F8F1
:1004C00012003846791CCFB2052804DD87A001F060
:1004D00073FD02E022E0002D92D000BFF5B10027AD
:1004E000BB46002001904FF4803900BF41465E4872
:1004F000001D00F0F4FA5C48001D00F0A6FB8146E8
:100500003846791CCFB2052805DD424649467DA014
:1005100001F052FD01E0C145E8D100BF5F485E49EE
:10052000097830F81100B0F5616F02DD01205949FA
:1005300008705A485849097830F81100B0F5806FB2
:1005400035DD54480078012831D100205149087028
:100550004F490860514A504B1B7832F8132011B2B2
:100560004F4A4D4B1B7802EB0330FFF739FE4B4AE5
:10057000494B1B7832F81310494A474B1B7802EB62
:100580000330FFF770FE01206949C1F8980100F0BF
:1005900049FC4148007808B9012000E000203E49AC
:1005A000087000213D483C4A127820F8121000984B
:1005B00018B100203649091F0860B3E641540D0AFE
:1005C0000000000041542B4350494E3F0D0A0000EB
:1005D00041542B4353510D0A0000000041542B435A
:1005E000474143543D312C310D0A000041542B4DFD
:1005F00049504F50454E3D312C22544350222C221D
:100600007365727665722E6E617461707066726564
:10061000652E6363222C33333538360D0A00000013
:10062000415445300D0A00004C20002034000020C9
:100630002564000006000020257325730D0A0000C4
:100640002573000068616C742063707509000000F8
:100650001870101A726561642074657374203D20EF
:1006600025780D0A0000000000AC33007770203DB3
:100670002025780D0A0000007770203D2025642C8D
:100680002020207270203D2025640D0A000000000B
:1006900098012342010000200000002002000020F9
:1006A0004C00002072656164207270203D2025643A
:1006B000206973206572726F7221A3AC2072696722
:1006C0006874207270203D2025640D0A000000002F
:1006D00072656164207770203D2025642069732055
:1006E0006572726F72210D0A00000000726561640C
:1006F000206D656D6F7279206973206572726F72FB
:10070000210D0A007772697465207270203D2025E2
:10071000642C206E6F742065712025642C20736F0B
:10072000206973206572726F72210D0A000000004B
:1007300000002342704700BFFEE700BFFEE700BF96
:10074000FEE700BFFEE77047704770477047000044
:100750000CB50020019000906C48006840F4803097
:100760006A49086000BF6948006800F400300090E2
:100770000198401C0190009818B90198B0F5A06F3D
:10078000F1D16248006800F4003010B101200090FF
:1007900001E0002000900098012843D15C480068E7
:1007A00040F010005A4908600846006820F0030035
:1007B00008600846006840F002000860534840683E
:1007C000524948600846406848600846406840F41E
:1007D000806048600846406820F47C104860084605
:1007E000406840F4E81048600846006840F08070B7
:1007F000086000BF4548006800F000700028F9D08C
:100800004248406820F0030040494860084640687C
:1008100040F00200486000BF3C48406800F00C0017
:100820000828F9D10CBD10B5FFF792FF10BD10B527
:100830003648006840F001003449086008464068C6
:100840003449084031494860084600683249084048
:100850002E4908600846006820F480200860084699
:10086000406820F4FE0048604FF41F008860FFF7E6
:10087000DAFF4FF000602949086010BD10B5002173
:1008800000200022214B5B6803F00C0121B10429F8
:1008900006D0082928D107E0214B224C236027E00D
:1008A0001F4B204C236023E0184B5B6803F470104F
:1008B000164B5B6803F48032022303EB904022B9AD
:1008C000194B4343174C23600DE0104B5B6803F456
:1008D000003323B1144B4343124C236003E0104B0D
:1008E0004343104C236003E00D4B0E4C236000BFCC
:1008F00000BF064B5B68C3F303130C4CE15C094B70
:100900001B68CB40074C236010BD00000010024064
:10091000002002400000FFF8FFFFF6FE08ED00E0B7
:1009200000127A001800002000093D001C00002081
:1009300008B50121402000F02FFF4020ADF8000055
:1009400010208DF8030003208DF802006946094845
:1009500000F066FC4021074800F00FFD2020ADF8B4
:1009600000006946034800F05BFC2021014800F0CC
:1009700004FD08BD001801401CB5DBA00068019013
:100980000121082000F008FF4FF48050ADF800006E
:1009900010208DF8030003208DF802006946D3482B
:1009A00000F03EFC4FF48051D04800F0E6FC0120FE
:1009B000CF49086000F0C7F9002000F00AFA0020D3
:1009C000CC49C1F8B001002407E001A9085D00F09E
:1009D00093F90A2000F043FA641C022CF5DB012095
:1009E000C3490860142000F03AFA1CBD2DE9F04715
:1009F00004460F46164604F00308042E02DA0020CF
:100A0000BDE8F087C8F10401701AC11700EB9171BD
:100A10008910A0EB810101F0FF090020B4490860B2
:100A20000B2000F069F9200E00F066F9C4F30740CE
:100A300000F062F9C4F3072000F05EF9E0B200F0C4
:100A40005BF9002504E0FF2000F056F9681C85B230
:100A500008F10400A842F6DC002506E0FF2000F0C3
:100A60004BF907F8010B681C85B2A6EB0900A842F8
:100A7000F4DC01209E4908600A2000F0F0F92846C5
:100A8000BEE72DE9F04104460F461646012E01DA75
:100A9000BDE8F081002096490860022000F02CF9A2
:100AA000200E00F029F9C4F3074000F025F9C4F343
:100AB000072000F021F9E0B200F01EF9002504E063
:100AC000785D00F019F9681C85B2B542F8DB0120A9
:100AD000874908600A2000F0C2F900BFD8E7FEB5D8
:100AE00004460D4600200090019002906F460220BF
:100AF0008DF80000200E8DF80100200C8DF802000A
:100B0000200A8DF80300E0B28DF80400280E8DF85D
:100B10000500280C8DF80600280A8DF80700E8B2B9
:100B20008DF80800002072490860002604E017F8DC
:100B3000010B00F0E1F8761C092EF8DB01206C496E
:100B40000860142000F08BF9FEBD2DE9FC4104463D
:100B5000002000900190002704F003060B208DF880
:100B60000000200E8DF80100200C8DF80200200AF4
:100B70008DF80300E0B28DF8040000205C490860A5
:100B8000002504E01DF8050000F0B6F86D1C052DE9
:100B9000F8DB002503E0FF2000F0AEF86D1C301DEF
:100BA000A842F8DCFF2000F0A7F8074601205049D2
:100BB0000860142000F053F93846BDE8FC81FEB50A
:100BC000044600200190029000904FF6FF7704F059
:100BD00003060B208DF80400200E8DF80500200C74
:100BE0008DF80600200A8DF80700E0B28DF80800A5
:100BF00000203F490860002504E001A9485D00F09D
:100C00007BF86D1C052DF8DB002503E0FF2000F0CC
:100C100073F86D1C301DA842F8DCFF2000F06CF862
:100C20008DF80000FF2000F067F88DF8010001202A
:100C30002F490860142000F012F99DF801009DF87A
:100C4000001040EA01273846FEBD2DE9FE43054667
:100C500000200190029000906E4601AF80460B206C
:100C60008DF80400280E8DF80500280C8DF806007C
:100C7000280A8DF80700E8B28DF8080000201C490A
:100C80000860002404E017F8010B00F035F8641C3C
:100C9000052CF8DB002403E0FF2000F02DF8641C95
:100CA000042CF9DB002405E0FF2000F025F806F80D
:100CB000010B641C042CF7DB01200D490860142093
:100CC00000F0CDF89DF803009DF8021040EA0120E5
:100CD0009DF8011040EA01409DF8001040EA0168CB
:100CE0004046BDE8FE830000111F0000000C0140DB
:100CF000B08121420080214270B50546002405E004
:100D0000601CC4B2C82C01DD002070BD02213A482D
:100D100001F0F9F80028F3D02946374801F0A0F88F
:100D2000002405E0601CC4B2C82C01DD0020ECE703
:100D30000121314801F0E7F80028F3D02E4801F0F6
:100D400091F8C0B2E1E700B587B00121082000F0BA
:100D500023FD0121880300F02CFD4FF46040ADF825
:100D6000180018208DF81B0003208DF81A0006A922
:100D7000224800F055FA4FF46041204800F0FDFA97
:100D80000020ADF804004FF48270ADF8060000209A
:100D9000ADF808000220ADF80A000120ADF80C0003
:100DA0004002ADF80E003820ADF810000020ADF87C
:100DB00012000720ADF8140001A90F4800F07AFFD7
:100DC00001210D4801F01BF8FF20FFF795FF07B048
:100DD00000BD10B50446084800884FF6C7710840AA
:100DE0000549088008460088204308800121024800
:100DF00001F005F810BD000000380040000C014073
:100E000070B505460C4645F2555001F0B3F828463A
:100E100001F0B3F8204601F0B3F801F0B4F801F0A6
:100E2000B7F870BD10B501F0AEF810BD10B56FF099
:100E3000040000F076F92E4800682E49B0FBF1F06E
:100E40002D4908700846007800EB4001C1EBC01046
:100E50004FF6FF7101EAC0002849088010BD014625
:100E6000254A12784A434FF0E0235A6100229A61E2
:100E70001A46126942F001021A6100BF4FF0E022E7
:100E8000106900F001021AB100F48032002AF5D096
:100E90004FF0E022126922F001024FF0E0231A61C4
:100EA00000229A6170470146144A12884A434FF063
:100EB000E0235A6100229A611A46126942F0010247
:100EC0001A6100BF4FF0E022106900F001021AB170
:100ED00000F48032002AF5D04FF0E022126922F0AF
:100EE00001024FF0E0231A6100229A61704700006E
:100EF0001800002000127A002C0000202E00002094
:100F000000BF704700BF484A128802F04002002A22
:100F1000F9D0C2B2444B1B1D1A80704710B586B081
:100F20000446012144F2040000F036FC4FF4007046
:100F3000ADF8140003208DF8160018208DF8170066
:100F400005A93A4800F06CF94FF48060ADF8140040
:100F500004208DF8170005A9344800F061F9252018
:100F60008DF8000003208DF801008DF802000120AB
:100F70008DF80300684600F08AF801940020ADF86F
:100F80000800ADF80A00ADF80C00ADF810000C2018
:100F9000ADF80E0001A9244800F0A5FC012240F2A2
:100FA0002551214800F037FD01211F4800F027FDA1
:100FB00006B010BD10B540F225511B4800F010FEE0
:100FC00000282FD0184800F08BFDC4B218480088C4
:100FD000052818DD0A2C16D11648154909884454ED
:100FE00015A101F0CFF818B101201549087002E0F1
:100FF00002201349087000200D49088020210D4867
:1010000001F0D2F80EE00B48094909884454084819
:101010000088401C06490880084600881F2801DD1A
:101020000020088010BD0000003801400008014089
:10103000340000204C20002053454E44204F4B00EC
:10104000010000200948804709480047FEE7FEE705
:10105000FEE7FEE7FEE7FEE7FEE7FEE7FEE7FEE768
:1010600004480549054A064B704700002F08000850
:1010700031010008D0200020D0260020D0220020FE
:10108000D022002031490143314A1160704770B5C8
:10109000002100230F22C47804B32D4C246804F4EB
:1010A000E064C4F5E064210AC1F10403CA40447855
:1010B00004FA03F18478144021430901254C067891
:1010C000A155047804F01F050124AC4005786D118A
:1010D000AD0005F1E025C5F8004109E0047804F011
:1010E0001F050124AC401C4D0678761145F82640BA
:1010F00070BD1A4A0A400243154B1B1F1A60704705
:1011000039B1134A121D12680243114B1B1D1A609C
:1011100006E00F4A121D126882430D4B1B1D1A6018
:101120007047042808D14FF0E021096941F004011B
:101130004FF0E022116107E04FF0E021096921F052
:1011400004014FF0E0221161704700000000FA0531
:101150000CED00E000E400E080E100E080FFFF1F14
:1011600010B50446CC48844208D10121042000F087
:101170002DFB0021042000F029FB46E0C7488442F3
:1011800008D10121082000F021FB0021082000F0F7
:101190001DFB3AE0C248844208D10121102000F032
:1011A00015FB0021102000F011FB2EE0BD48844209
:1011B00008D10121202000F009FB0021202000F0AF
:1011C00005FB22E0B848844208D10121402000F00C
:1011D000FDFA0021402000F0F9FA16E0B3488442FD
:1011E00008D10121802000F0F1FA0021802000F0D8
:1011F000EDFA0AE0AE48844207D10121801500F0E3
:10120000E5FA0021A01500F0E1FA10BD10B50121AA
:10121000084600F0DBFA0021012000F0D7FA10BDEB
:101220002DE9F0410246002500260020002300247D
:10123000002791F803C00CF00F0591F803C00CF0E3
:10124000100CBCF1000F03D091F802C04CEA050568
:1012500091F800C0BCF1000F31D0146800202BE0E1
:101260004FF0010C0CFA00F3B1F800C00CEA0306D1
:101270009E4220D183004FF00F0C0CFA03F7BC43C1
:1012800005FA03FC4CEA040491F803C0BCF1280FF2
:1012900006D14FF0010C0CFA00FCC2F814C00AE0B1
:1012A00091F803C0BCF1480F05D14FF0010C0CFAC6
:1012B00000FCC2F810C0401C0828D1D31460B1F85B
:1012C00000C0BCF1FF0F34DD546800202EE000F1B7
:1012D000080C4FF0010808FA0CF3B1F800C00CEA52
:1012E00003069E4221D183004FF00F0C0CFA03F746
:1012F000BC4305FA03FC4CEA040491F803C0BCF1BA
:10130000280F05D100F1080C08FA0CF8C2F8148077
:1013100091F803C0BCF1480F07D100F1080C4FF061
:10132000010808FA0CF8C2F81080401C0828CED337
:101330005460BDE8F0814FF6FF7101800221817099
:101340000421C17070470246002093680B400BB126
:10135000012000E0002070470146886880B2704795
:1013600002460020D3680B400BB1012000E00020B2
:1013700070470146C86880B270470161704741619B
:1013800070470AB1016100E041617047C160704778
:101390004FF480320A43826181618261826982698D
:1013A000704702460020434B18684FF68073184080
:1013B00040EA021008433F4B186070473E49C8613D
:1013C0007047F0B50A46002300240021002500F0F4
:1013D0000046B6F1004F02D1364EF16901E0354EBC
:1013E0007168C0F3034583B200F44016B6F5401FA0
:1013F00008D121F070612F4E766826F070662D4F6F
:101400007E6012E000F48016B6F5801F06D1032638
:1014100006FA05F4A14341F0706106E0460D36017D
:1014200003FA06F6B14341F0706122B1460D360170
:1014300003FA06F6314300F00046B6F1004F02D140
:101440001C4EF16101E01B4E7160F0BD30B5002211
:101450008B071C0F0F2303FA04F2164B08338C1072
:1014600053F824309343134C08348D1044F825303E
:1014700023468C1053F824308C07240F00FA04F410
:1014800023430C4C08348D1044F8253030BD0A49F4
:10149000DC3108607047000000080140000C01408A
:1014A000001001400014014000180140001C0140E0
:1014B000002001400000014000002042DF48006899
:1014C00040F00100DD49086008464068DC490840FA
:1014D000DA49486008460068DA490840D749086098
:1014E0000846006820F4802008600846406820F420
:1014F000FE0048604FF41F0088607047CF490968BC
:1015000021F48031CD4A11601146096821F480210F
:101510001160B0F5803F03D0B0F5802F0ED106E00A
:10152000C649096841F48031C44A116007E0C349E3
:10153000096841F4A021C14A116000E000BF00BF6A
:10154000704710B501460022002300204A11012AED
:1015500002D1BA4C236806E0022A02D1B74C236AB2
:1015600001E0B64C636A01F01F02012494401C4064
:101570000CB1012000E0002010BD38B50020009023
:101580000024002500BF3120FFF7DBFF054600984F
:10159000401C00900098B0F5A06F01D0002DF2D053
:1015A0003120FFF7CEFF08B1012400E000242046DF
:1015B00038BD01460020A14A106820F0F80040EA3A
:1015C000C10010607047A0490860704702460020C3
:1015D0009A4B586820F47C1042EA01031843974B59
:1015E0005860704798490866704701460020934A42
:1015F000506820F003000843506070478F484068EF
:1016000000F00C007047014600208C4A506820F022
:10161000F00008435060704701460020874A506838
:1016200020F4E06008435060704701460020834A80
:10163000506820F4605040EAC1005060704729B102
:101640007E4A527A02437D4B5A7204E07B4A527AB8
:1016500082437A4B5A7270477B49D8310860704791
:1016600001460020754A506820F44040084350600D
:1016700070470021714A20321170704A82F82010A0
:10168000012802D004280AD104E001216B4A20324B
:10169000117005E00521694A2032117000E000BF99
:1016A00000BF70476949086070476449096A01438F
:1016B000624A11627047654944390860704730B525
:1016C00000210022002400235C4D6D6805F00C0110
:1016D00021B1042905D0082923D105E05C4D05601E
:1016E00022E05B4D05601FE0544D6D6805F47012FB
:1016F000524D6D6805F48034022505EB92421CB909
:10170000544D554305600BE04C4D6D6805F40035B4
:101710001DB1504D5543056002E04D4D55430560E8
:1017200002E04B4D056000BF00BF444D6D6805F001
:10173000F0010909484D6B5C0568DD4045603F4D8F
:101740006D6805F4E061090A434D6B5C4568DD4056
:1017500085603A4D6D6805F46051C90A3E4D6B5C79
:101760004568DD40C560354D6D6805F44041890B25
:101770003A4D6B5CC568B5FBF3F5056130BD29B129
:101780002E4A526902432D4B5A6104E02B4A52699A
:1017900082432A4B5A61704729B1284A9269024311
:1017A000264B9A6104E0254A92698243234B9A6151
:1017B000704729B1214AD2690243204BDA6104E023
:1017C0001E4AD26982431D4BDA61704729B11B4A18
:1017D000D2680243194BDA6004E0184AD2688243A7
:1017E000164BDA60704729B1144A12690243134B51
:1017F0001A6104E0114A12698243104B1A61704762
:1018000012494039086070470F49C86470470B4956
:10181000C87170470948406A40F0807007494862C3
:10182000704701460020054A92680A400AB101202B
:1018300000E00020704701498872704700100240A4
:101840000000FFF8FFFFF6FE000042428004424223
:1018500000127A0000093D003600002046000020FA
:1018600010B50446FB48844209D101218803FFF7E3
:10187000ADFF00214FF48040FFF7A8FF32E0F648AB
:10188000844209D101214804FFF7ADFF00214FF444
:101890000030FFF7A8FF25E0F048844209D101217C
:1018A0008804FFF7A0FF00214FF48020FFF79BFF83
:1018B00018E0EB48844209D10121C804FFF793FFE7
:1018C00000214FF40020FFF78EFF0BE0E548844233
:1018D00008D101210805FFF786FF00214FF4801091
:1018E000FFF781FF10BD2DE9F04786B005460E4693
:1018F0000024A24600BFA1460027B08900B100BF66
:101900002F462C8A4CF6FF700440F08804432C824A
:10191000AC894EF6F3100440B088318908437189D0
:1019200008430443AC81AC8A4FF6FF400440B089C1
:101930000443AC8201A8FFF7C2FEC648874202D129
:10194000DDF810A001E0DDF80CA0A88900F400404B
:1019500040B10AEBCA0000EB0A1031684900B0FB45
:10196000F1F807E00AEBCA0000EB0A1031688900C1
:10197000B0FBF1F86420B8FBF0F004012009642109
:1019800001FB1089A88900F4004040B1322000EB2F
:10199000C900B0FBF1F000F00700044308E032207A
:1019A00000EB09106421B0FBF1F000F00F000443DC
:1019B0002C8106B0BDE8F0874FF41651016000217C
:1019C0008180C18001810C2141810021818170478A
:1019D00010B502460020108A4FF2FF0318400B8812
:1019E0004C8823438C882343CC882343184310829C
:1019F00010BD0021018041808180C180704721B1EC
:101A0000828942F40052828104E082894DF6FF739C
:101A10001A4082817047F0B5034600240026002555
:101A2000002040F66A17B94200D100BF1846C1F342
:101A3000421401F01F06012707FA06F5012C01D117
:101A40000C3004E0022C01D1103000E014301AB147
:101A500007682F43076002E00768AF430760F0BDE7
:101A60001AB1838A0B43838202E0838A8B43838289
:101A70007047028A4FF6F0731A400282028A0A43C4
:101A80000282704782894FF2FF731A4082818289F5
:101A90000A438281704721B1828942F00202828129
:101AA00004E082894FF6FD731A4082817047028AF2
:101AB0004FF6DF731A400282028A0A43028270479D
:101AC00021B1028A42F48042028204E0028A4BF68B
:101AD000FF731A4002827047C1F308028280704788
:101AE00001468888C0F308007047818941F00101F0
:101AF00081817047028BD2B20283028B42EA0122BB
:101B000002837047028B02F47F420283028B0A43F6
:101B10000283704721B1828A42F02002828204E06F
:101B2000828A4FF6DF731A408282704721B1828A1F
:101B300042F01002828204E0828A4FF6EF731A406C
:101B40008282704721B1828A42F00802828204E0D8
:101B5000828A4FF6F7731A408282704721B18289D8
:101B600042F40042828103E08289C2F30E02828144
:101B7000704721B1828A42F40062828204E0828A44
:101B80004FF2FF731A4082827047828A4FF6FB73CE
:101B90001A408282828A0A438282704721B1828AF5
:101BA00042F00202828204E0828A4FF6FD731A40FC
:101BB0008282704702460020B1F5007F00D100BF4D
:101BC00013880B400BB1012000E00020704701F4A6
:101BD0000072B2F5007F00D100BFCA430280704797
:101BE00070B50246002400230025002040F66A1646
:101BF000B14200D100BFC1F3421501F01F0301261D
:101C000006FA03F3012D02D19689334006E0022D36
:101C100002D1168A334001E0968A33400C12012625
:101C200006FA04F41688344013B10CB1012000E028
:101C3000002070BD10B50022002340F66A14A142B6
:101C400000D100BF0A1201249440A3B2DC430480F7
:101C500010BD000000380140004400400048004032
:101C6000004C00400050004010B50446BE4884427D
:101C700008D101218014FFF7A9FD0021A014FFF76E
:101C8000A5FD16E0B948844208D101210014FFF7F0
:101C9000AAFD00212014FFF7A6FD0AE0B448844203
:101CA00007D10121C013FFF79EFD0021E013FFF7CC
:101CB0009AFD10BD10B50022028802F441520B8833
:101CC0004C8823438C882343CC8823430C892343AB
:101CD0004C8923438C892343CC8923431A430280B4
:101CE000838B4FF2FF74234083830B8A038210BDE2
:101CF0002DE9F04F85B005460C464FF0000902274C
:101D00004FF000084FF0010B0026B246A88B4FF2AF
:101D100040010840A88302202884B5F81C90A068E0
:101D2000022801D100BF38E0A08810B94FF0010BA4
:101D300001E04FF0020B8D48854200D100E000BF6A
:101D40006846FFF7BCFCDDF800A0E088B0F5007F36
:101D50000AD14FEA1A2000EB80004000A168B0FBD6
:101D6000F1F0401D86B20BE04FEA4B10BAFBF0F0E9
:101D700000EB80004000A168B0FBF1F0401D86B28E
:101D80000A20B6FBF0F606F00108A6EB0800C0F347
:101D90004F074FF6FF7000EA0828022F01DBFF2FE4
:101DA00002DD02274FF00008E08840EA08003843CF
:101DB0002884A088A18908436188084321880843B2
:101DC00040F4006040EA0909A5F81C9005B0BDE8A0
:101DD000F08F0021018041808180C180018141819B
:101DE0008181C181072101827047002101804180EA
:101DF0008180C1800221816000218181704721B1F1
:101E0000028842F04002028004E002884FF6BF736D
:101E10001A400280704721B1828B42F48062828333
:101E200004E0828B4FF6FF331A408283704730B54F
:101E3000002400230C110125A540ABB21AB18588FE
:101E40001D43858002E085889D43858030BD1AB1A1
:101E500083880B43838002E083888B4383807047B1
:101E6000818170470146888970474FF6FF62914231
:101E700004D0028842F48072028004E002884FF6A7
:101E8000FF631A400280704721B1828842F0040249
:101E9000828004E082884FF6FB731A40828070478C
:101EA00002884FF2FF731A40028002880A430280C0
:101EB0007047018841F480510180704721B1028848
:101EC00042F40052028004E002884DF6FF731A408B
:101ED0000280704702460020012901D0108B00E0EB
:101EE000908A70470146088A7047B1F5804F04D147
:101EF000028842F48042028004E002884BF6FF73BD
:101F00001A40028070470246002013890B400BB133
:101F1000012000E000207047CA4302817047F0B5FD
:101F20000246002000240023002501F00F070126AF
:101F3000BE40B4B20B1101269E40B3B2968806EAA9
:101F400003051689264016B10DB1012000E00020DE
:101F5000F0BD10B5002201F00F040123A3409AB296
:101F6000D343038110BD0000003001400038004021
:101F7000003C00400E49086070470D4948607047BA
:101F80000B49886070474AF6AA20094908607047E3
:101F90004CF6CC4006490860704701460020044AD0
:101FA000D2680A400AB1012000E00020704700001A
:101FB00000300040704700000FB4044910B503AA78
:101FC000029800F0A5F910BC5DF814FB3000002069
:101FD0000FB41CB5074B06AA7B44694600900598D0
:101FE00000F067F90020694600F076F91CBC5DF846
:101FF00014FB0000FD0200002DE9F0410E460446EE
:10200000002020622046E168884730B3252805D0AB
:10201000D4E901219047206A401CF2E7E16820469C
:1020200000278847050018D0A5F14100192802D8DB
:1020300020354FF400673246294620462760FEF7D8
:10204000B1F840B1012804D0F61D26F00706083685
:10205000D8E7361DD6E72846DAE7206ABDE8F081E2
:1020600070B50C460546012A05D02878800600D5B3
:10207000EA69002302E0012305E05B1C934202D2DF
:10208000E05C0028F9D1A869E618C01AA861286A9E
:10209000184428622846AFF3008004E0D5E9012106
:1020A00014F8010B9047B442F8D32846AFF30080F0
:1020B00070BD00002DE9F041064600241068752926
:1020C000314616A510D0AFF30080002802DA404256
:1020D00013A507E031688A0701D512A502E0490778
:1020E00004D511A5012401E0AFF3008000210A22EC
:1020F00006F1240709E0B0FBF2FCB0FBF2F302FBAF
:102100001C00303078541846491C0028F3D123466F
:102110002A463046BDE8F04100F06CB800000000EF
:102120002D0000002B0000002000000070B50446C8
:102130000D4621461068AFF300802188090502D5BD
:102140000F4A7A4402E00E4A7A440E32002104F12A
:10215000240305E000F00F060009965D5E54491C5B
:102160000028F7D120780023000704D5702D02D075
:1021700009B1022311322046BDE8704000F03AB8A0
:10218000AA02000030B505460B462A4613F8014B5B
:1021900012F8010B08B1A042F8D01CB1002802D0FF
:1021A0006D1CF1E7284630BD4FF000020429C0F055
:1021B000128010F0030C00F0BF80CCF1040CBCF1D5
:1021C000020F18BF00F8012BA8BF20F8022BA1EBCB
:1021D0000C0100F0B1B85FEAC17C24BF00F8012B0C
:1021E00000F8012B48BF00F8012B7047704770477B
:1021F000704770472DE9F0470D46994692460446D0
:1022000000F124080168880604D5E06921F0100176
:10221000216000E00120A84201DD471B00E000270B
:10222000A1697A1902EB0900081AA0612078C0069A
:1022300002D42046AFF30080002608E0D4E9012153
:102240001AF806009047206A401C761C20624E4512
:10225000F4DB2078C0060AD52046AFF3008006E004
:10226000D4E9012130209047206A401C2062381EAA
:10227000A7F10107F4DC07E0D4E9012118F8050013
:102280009047206A401C2062281EA5F10105F3DC5E
:102290002046AFF300802078000602D50220BDE87A
:1022A000F0870120FBE7000001694A1C0261087801
:1022B000704700B58FB0CDE9013100210591054986
:1022C0007944CDE9031011466846FFF795FE0FB03B
:1022D00000BD0000E5FFFFFF0A6802F8010B0A607D
:1022E000704710B5436913B1AFF3008001E0FFF709
:1022F000B7FE012010BD127800F124010A700022FF
:102300004A700122EDE711684FF0FF32E9E7000063
:10231000074B70B50D467B44FFF7CBFF04462846BC
:1023200000F02FF810B14FF0FF3070BD204670BDA7
:10233000EBEBFFFF4FF0000200B5134694469646C4
:10234000203922BFA0E80C50A0E80C50B1F12001C8
:10235000BFF4F7AF090728BFA0E80C5048BF0CC076
:102360005DF804EB890028BF40F8042B08BF7047D4
:1023700048BF20F8022B11F0804F18BF00F8012B46
:102380007047007B00F080007047754600F02CF825
:10239000AE4605006946534620F00700854618B052
:1023A00020B5FEF75DFEBDE820404FF000064FF07F
:1023B00000074FF000084FF0000B21F00701AC467A
:1023C000ACE8C009ACE8C009ACE8C009ACE8C00999
:1023D0008D46704710B50446AFF300802046BDE837
:1023E0001040FDF7F7BE0000004870476C20002049
:1023F000303132333435363738394142434445463B
:102400004030580030313233343536373839616234
:1024100063646566403078003824000800000020BE
:102420004C0000006C010008842400084C000020CF
:1024300084260000880100080001000000004154CB
:102440002B4D495053454E443D312C0000000000B7
:1024500000A24A0400000000000000000102030482
:10246000060708090000000000000000000000004E
:102470000000010203040102030406070809020424
:04248000060800004A
:0400000508000131BD
:00000001FF
