:020000040800F2
:10000000481A00208D2B0008B5050008B705000828
:10001000BB050008BF050008C3050008000000007C
:10002000000000000000000000000000C7050008FC
:10003000C905000800000000CB050008CD05000838
:10004000A72B0008A72B0008A72B0008A72B000848
:10005000A72B0008A72B0008A72B0008A72B000838
:10006000A72B0008A72B0008A72B0008A72B000828
:10007000A72B0008A72B0008A72B0008A72B000818
:10008000A72B0008A72B0008A72B0008A72B000808
:10009000A72B0008A72B0008A72B0008A72B0008F8
:1000A000A72B0008A72B0008A72B0008A72B0008E8
:1000B000A72B0008A72B0008A72B0008A72B0008D8
:1000C000A72B0008A72B0008A72B0008A72B0008C8
:1000D000A72B0008012B0008A72B0008A72B00085E
:1000E000A72B0008A72B0008A72B0008A72B0008A8
:1000F000A72B0008A72B0008A72B0008A72B000898
:10010000A72B00082D230008A72B0008A72B000809
:10011000A72B0008A72B0008A72B0008A72B000877
:10012000A72B0008A72B0008A72B0008A72B000867
:1001300000F002F800F045F80AA090E8000C8244B4
:100140008344AAF10107DA4501D100F03AF8AFF291
:10015000090EBAE80F0013F0010F18BFFB1A43F0A5
:10016000010318471842000038420000103A24BF2B
:1001700078C878C1FAD8520724BF30C830C144BF0C
:1001800004680C607047000000230024002500264E
:10019000103A28BF78C1FBD8520728BF30C148BFEA
:1001A0000B607047642903F01D87782903F0568798
:1001B000732904F05080002070471FB51FBD10B593
:1001C00010BD04F095F81146FFF7F7FF00F02EF888
:1001D00004F0B3F803B4FFF7F2FF03BC02F036FCFF
:1001E00010B5B7A003F080FE0A2002F0FCFBB6A019
:1001F00003F07AFE0A2002F0F6FBB6A003F074FECC
:100200000A2002F0F0FBB6A003F06EFE0A2002F016
:10021000EAFBBAA003F068FE0A2002F0E4FBBBA0F0
:1002200003F062FE0A2002F0DEFB10BD08B54FF0BD
:10023000000A02F09BFB4FF4A06002F0C7FC4FF4F1
:10024000E13002F011FC00F0B3FA00F0D5FA02F050
:10025000C4F9BBA003F048FEBC4802F03FF90646D3
:100260003146BBA003F040FEB84802F071FA0546E3
:100270002946BCA003F038FEB448401C02F068FADE
:1002800005462946B7A003F02FFEB048801C02F0B7
:100290005FFA05462946B3A003F026FEAB48C01C12
:1002A00002F056FA05462946AEA003F01DFEB048FE
:1002B00002F088FA07463946AEA003F015FEAC48B6
:1002C000801C02F07FFA07463946AAA003F00CFE14
:1002D0000027A74802F002F90746A548001D02F0D2
:1002E000FDF8064632463946A5A003F0FDFD002084
:1002F000A9490860FFF774FF00274FF48036DDE05E
:100300009B48001D02F0EAF806464E4503D0BAF1BC
:10031000000F00D0D2E0964802F0E0F80746B7F5AB
:10032000805F01D8082F00D2C8E0BE4255D2B81B6A
:10033000102800D2C2E0B91B8AB28D49083170186A
:10034000964902F08FF90546B5F5805F01DD00257D
:10035000B4E0002D40D04FF4803900BF71198448BB
:10036000001D02F005F98248001D02F0B7F8814631
:1003700070194845F2D1002419E08849E01C11F8B1
:1003800000800846015D0246E01C1154104600F84A
:1003900004800146A01C11F80080601C095CA01CB0
:1003A00011541146601C01F80080201D84B2AC423B
:1003B000E3DB0020794948552A4679A1684603F0D5
:1003C0009FFD6A46774978A003F08EFD4FF4803692
:1003D000724977A003F088FD62E0BE4260D9C6F59D
:1003E00080503844102800D268E0C6F580518AB2A7
:1003F0005F4908317018694902F034F90546BAB20C
:10040000664841195A48083002F02CF90446281968
:1004100085B2B5F5805F01DD00254FE0002D3FD0AE
:100420004FF4803900BF21465148001D02F0A0F86A
:100430004F48001D02F052F88146A145F3D1002437
:1004400019E05649E01C11F800800846015D02469B
:10045000E01C1154104600F804800146A01C11F85D
:100460000080601C095CA01C11541146601C01F83E
:100470000080201D84B2AC42E3DB00204749485590
:100480002A4647A1684603F03BFD6A46454946A017
:1004900003F02AFD4FF48036404945A003F024FDC7
:1004A0003D48006808B9012000E000203A49086092
:1004B0004AF0FF0A0A2002F096FA00BF20E7000087
:1004C00041540D0A0000000041542B4350494E3F57
:1004D0000D0A000041542B4353510D0A0000000047
:1004E00041542B434744434F4E543D312C224950F5
:1004F000222C22434D494F542200000041542B43EB
:10050000474143543D312C310000000041542B4DF4
:1005100049504F50454E3D312C22544350222C22FD
:100520007365727665722E6E617461707066726545
:10053000652E6363222C34323435310D0A000000FD
:1005400068616C7420637075090000001870101ADF
:10055000726561642074657374203D2025780D0AEE
:1005600000000000746D70203D2025780D0A000009
:1005700000AC33007770203D2025780D0A00000084
:100580007770203D2025642C2020207270203D2093
:1005900025640D0A00000000980123425C00002041
:1005A0002564000001000020257325730D0A00005A
:1005B00025730000704700BFFEE700BFFEE700BFE5
:1005C000FEE700BFFEE770477047704770470000C6
:1005D0000CB50020019000906C48006840F4803019
:1005E0006A49086000BF6948006800F40030009064
:1005F0000198401C0190009818B90198B0F5A06FBF
:10060000F1D16248006800F4003010B10120009080
:1006100001E0002000900098012843D15C48006868
:1006200040F010005A4908600846006820F00300B6
:1006300008600846006840F00200086053484068BF
:10064000524948600846406848600846406840F49F
:10065000806048600846406820F47C104860084686
:10066000406840F4E81048600846006840F0807038
:10067000086000BF4548006800F000700028F9D00D
:100680004248406820F003004049486008464068FE
:1006900040F00200486000BF3C48406800F00C0099
:1006A0000828F9D10CBD10B5FFF792FF10BD10B5A9
:1006B0003648006840F00100344908600846406848
:1006C00034490840314948600846006832490840CA
:1006D0002E4908600846006820F48020086008461B
:1006E000406820F4FE0048604FF41F008860FFF768
:1006F000DAFF4FF000602949086010BD10B50021F5
:1007000000200022214B5B6803F00C0121B1042979
:1007100006D0082928D107E0214B224C236027E08E
:100720001F4B204C236023E0184B5B6803F47010D0
:10073000164B5B6803F48032022303EB904022B92E
:10074000194B4343174C23600DE0104B5B6803F4D7
:10075000003323B1144B4343124C236003E0104B8E
:100760004343104C236003E00D4B0E4C236000BF4D
:1007700000BF064B5B68C3F303130C4CE15C094BF1
:100780001B68CB40074C236010BD000000100240E6
:10079000002002400000FFF8FFFFF6FE08ED00E039
:1007A00000127A001400002000093D00180000200B
:1007B00008B50121402002F093FD4020ADF8000073
:1007C00010208DF8030003208DF8020069460948C7
:1007D00002F0CAFA4021074802F073FB2020ADF86E
:1007E00000006946034802F0BFFA2021014802F0E8
:1007F00068FB08BD0018014008B50121442002F043
:100800006FFD1020ADF8000048208DF80300694608
:10081000234802F0A9FA0120ADF8000028208DF845
:10082000030069461F4802F09FFA08BD10B5044650
:1008300014B101201C4908701B480078F8B1102140
:10084000174802F024FB28B10121164802F01FFBD3
:10085000012814D10A2002F0C6F8002012490870BD
:1008600010210F4802F013FB08B9012010BD01212F
:100870000C4802F00CFB01280FD10420F6E71021F0
:10088000074802F004FB012807D10121054802F0C6
:10089000FEFA10B90120044908700020E6E70000C4
:1008A00000180140000801402800002001460020F7
:1008B000012900D011B9FE4B197000E026207047C5
:1008C0000146FC4A506820F0FF0008435060704722
:1008D00070B5044605E0F748456B05F0450000B1EA
:1008E00000E0F8E700BF042003F051F920B1042034
:1008F00003F057F9032070BD012003F048F920B13F
:10090000012003F04EF90120F5E7EA480069A04212
:1009100001D01020EFE740F2FF50E6498863084617
:10092000406908210840C0B2E5E72DE9FC410746CF
:100930000D46002600240020009001900820DE498A
:10094000086010204860402088600020C8604FF494
:1009500080600861084603F0A3F81020FFF7B8FF95
:10096000044614B12046BDE8FC81D4480088000448
:10097000D149086037204860402088600020C86066
:100980004FF480600861084603F08AF83720FFF7CB
:100990009FFF04460CB12046E5E74FF0FF30C84901
:1009A000086008204860302088600220C86000206D
:1009B000086101204861084603F09BF80020BE4909
:1009C000086033204860402088600020C8604FF4F1
:1009D00080600861084603F063F83320FFF778FF72
:1009E00004460CB12046BEE70CE04FF4001003F0C3
:1009F000CEF838B103F09FF84DF82600761C022E91
:100A000000D306E0AB48406B40F22A610840002862
:100A1000EBD000BF082003F0BAF820B1082003F0A3
:100A2000C0F804209FE7022003F0B1F820B10220B3
:100A300003F0B7F8022096E7202003F0A8F820B1D1
:100A4000202003F0AEF806208DE74FF4007003F08D
:100A50009EF828B14FF4007003F0A3F8072082E756
:100A600040F2FF5003F09DF800980006009901F451
:100A70007F4140EA0120009901F47F0140EA112002
:100A8000009940EA1160686001980006019901F43C
:100A90007F4140EA0120019901F47F0140EA1120E1
:100AA000019940EA1160286020465CE77CB5054664
:100AB000002400200090019000260DB1022600E0E5
:100AC00000267C48406900F0007008B10E207CBD13
:100AD0007A49098888B26946FFF727FF04460CB1B6
:100AE0002046F4E7019800F4802060B37348008842
:100AF0000004714908603720486040208860002069
:100B0000C8604FF480600861084602F0C9FF3720D2
:100B1000FFF7DEFE04460CB12046D8E766480660C3
:100B2000062065494860402088600020C8604FF476
:100B300080600861084602F0B3FF0620FFF7C8FE98
:100B400004462046C3E72520C1E770B504460025CA
:100B50005C480078032801D1272070BD59480078EF
:100B600038B158480078012803D056480078022848
:100B700018D1022C01D32720EFE7E0B2FFF796FF50
:100B800005467DB94B48406820F4C050494948604B
:100B900008464068A1B240EAC1204649486008467C
:100BA000406848602846D8E710B5044642480460CB
:100BB000072041494860402088600020C8604FF409
:100BC00080600861084602F06BFF0720FFF780FE97
:100BD00010BDF0B50146002000223A4B1B7881F889
:100BE0005630364B1B88A1F85430374B1B681A0E11
:100BF00093090B70C2F383034B7002F003038B70F5
:100C0000314B1B68C3F30742CA702F4B1B88C3F3D9
:100C100007220A712C4B1A784A715B681A0E13016D
:100C2000CB80294B5B68C3F30742CB8843EA12139E
:100C3000CB8002F00F030B72234B9B88C3F3072278
:100C4000D3094B72C2F380138B72C2F34013CB7281
:100C5000C2F300130B7300234B731A4B1B783BB189
:100C6000184B1B78012B03D0164B1B78032B5ED13E
:100C700093071B0D0B61144B1A790B6943EA82032E
:100C80000B61114B9B681A0E0B6943EA92130B61BF
:100C9000C2F3C2030B7502F007034B750A4B9B6846
:100CA000C3F3074253098B75C2F38203CB750DE082
:100CB0003400002000800140781000203000002027
:100CC0008C1000202C000020A410002093075B0F44
:100CD0000B76F74B1B89C3F307220B7E43EAD21333
:100CE0000B760B695B1C0024C1E912340B7E9B1C44
:100CF000012404FA03F3DC17D1E91256A5FB037CA7
:100D000006FB03C305FB0433C1E912730C7A01230C
:100D1000A3400B650024D1E912650B6DA6FB037C93
:100D200005FB03C306FB0433C1E912732EE0E14B5C
:100D30001B78022B2AD1DE4B1A7993069B0A0B6192
:100D4000DB4B9B681A0E0B6943EA02230B61D84BFD
:100D50009B68C3F307420B6913430B61D44B1B8998
:100D6000C3F307220B695B1C4FF40074A3FB04461A
:100D70004FF480630025A4FB037C06FB03C304FB44
:100D80000533C1E912734FF400730B65C2F380138E
:100D900001F8193F93065B0E4B70C54B1A7A4B78DE
:100DA00043EAD2134B7002F07F038B70C04BDB68B9
:100DB0001A0ED309CB70C2F341130B71C2F3820335
:100DC0004B7193071B0F8B71B94BDB68C3F3074261
:100DD0008B7943EA92138B71C2F34013CB710023DA
:100DE0000B7202F001034B72B14B9B89C3F30722D4
:100DF000D3098B72C2F38013CB72C2F340130B730F
:100E0000C2F300134B73C2F381038B7302F003032D
:100E1000CB73A74B1A7B53080B7401234B74A64B5F
:100E20001B681A0ECA741939A34B1B68C3F3074217
:100E30001402CC85A04B1B88C3F30722CB8D134330
:100E4000CB859D4B1A7814060C635B681A0E0B6BEE
:100E500043EA02440C63984B5B68C3F307420B6B95
:100E600043EA02240C63944B9B88C3F307220B6B69
:100E700013430B63904B1A7934235A548E4B9B685F
:100E80001A0E35235A548C4B9B68C3F30742140641
:100E90008C63894B1B89C3F307228B6B43EA0244A3
:100EA0008C63854B1A7A8B6B43EA02248C63824BEA
:100EB000DB681A0E8B6B13438B637F4BDB68C3F3CA
:100EC00007423C235B5C43EA12143C235C54130747
:100ED0001C0DCC87784B9B89C3F30722CB8F134320
:100EE000CB87754B1A7B540840235C540124412363
:100EF0005C54F0BD70B500264FF4803505E06F48B6
:100F0000446B04F0450000B103E0281EA5F1010583
:100F1000F5D100BF15B104F0040028B10326042068
:100F200002F03FFE304670BD012002F030FE18B1E5
:100F30000126012002F035FE40F2FF5002F031FEA2
:100F40003046F0E72DE9F04105460E464FF0000827
:100F500005E05A48476B07F0450000B100E0F8E7AC
:100F600000BF042002F013FE28B1042002F019FE95
:100F70000320BDE8F081012002F009FE20B101202C
:100F800002F00FFE0120F4E74C480069A84201D0AE
:100F90001020EEE740F2FF5002F003FE474844699C
:100FA00004F4604018B9200C30804046E1E704F4B6
:100FB000005008B11320DCE704F4804008B1102091
:100FC000D7E704F4004008B10F20D2E74046D0E74D
:100FD00038B500240120009002F04DFD08B925200D
:100FE00038BD34480078042821D0002034490860F6
:100FF00002204860C02088600020C8604FF48060F4
:101000000861084602F04CFDFFF774FF04460CB17E
:101010002046E5E729484069274908602748806954
:1010200048602648C06988602448006AC860214832
:10103000007858B11F480078012807D01D48007873
:10104000062803D01B480078022816D100201C492E
:10105000086003204860402088600020C8604FF48A
:1010600080600861084602F01BFD69460320FFF717
:1010700069FF04460CB12046B2E70E480078032809
:1010800020D1BDF8000000040D490860032048602D
:10109000402088600020C8604FF4806008610846E6
:1010A00002F0FEFCFFF726FF04465CB1204697E7FE
:1010B000A41000202C000020B4100020008001406B
:1010C00078100020FE480078042827D0BDF80000E2
:1010D000FC490860BDF800000004FB4908600920D5
:1010E0004860C02088600020C8604FF480600861BC
:1010F000084602F0D5FCFFF7FDFE04460CB1204681
:101100006EE7F2484069F2490860F048806948603B
:10111000EE48C0698860ED48006AC86000205FE75B
:1011200010B505E0E948446B04F0450000B100E06B
:10113000F8E700BF042002F02AFD20B1042002F0ED
:1011400030FD032010BD40F2FF5002F02AFD0020C8
:10115000F8E770B500264FF4803505E0DB48446BB6
:1011600004F0450000B103E0281EA5F10105F5D10A
:1011700000BF15B104F0040028B10326042002F0DA
:1011800010FD304670BD04F0400018B1002640202C
:1011900002F007FD3046F5E770B500254FF48034C6
:1011A00004E0802002F0F3FC00B103E0201EA4F173
:1011B0000104F6D100BF0CB9032070BD40F2FF500E
:1011C00002F0EFFC2846F8E72DE9F047002700245D
:1011D00000260025A046A146B220BE490875002081
:1011E000086048608860C8600861084602F018FC22
:1011F000032002F035FC012002F02FFC00BF12E0BA
:101200000020B149086048608860C8604FF4806081
:101210000861084602F044FCFFF7BEFF044604B92B
:1012200003E0781CC7B24A2FEADB00BF14B12046A6
:10123000BDE8F0874FF4D570A349086008204860E6
:10124000402088600020C8604FF480600861084634
:1012500002F026FCFFF77DFF044624B901209849DF
:1012600008704FF080490020974908603720486097
:10127000402088600020C8604FF480600861084604
:1012800002F00EFC3720FFF723FB0446002C4BD165
:1012900034E000208C490860372048604020886096
:1012A0000020C8604FF480600861084602F0F8FB37
:1012B0003720FFF70DFB04460CB12046B8E78648FF
:1012C00049EA000080490860292048604020886081
:1012D0000020C8604FF480600861084602F0E0FB1F
:1012E000FFF71EFF04460CB12046A1E77748466988
:1012F000012080EAD67080F001086D1CB8F1000F63
:1013000003D14FF6FF708542C3D34FF6FF7085427D
:1013100002D31B2420468BE706F08040061E32D005
:101320000220674908702EE01CE06C48664908609E
:1013300001204860402088600020C8604FF4806031
:101340000861084602F0ACFBFFF7EAFE04460CB168
:1013500020466DE75D484669012080EAD67080F03E
:1013600001086D1CB8F1000F03D14FF6FF708542E4
:10137000DBD34FF6FF70854202D31B24204657E78C
:1013800003204F490870204652E77CB50025002411
:101390000121302001F0A4FF012140F2024001F0C0
:1013A00092FF4FF4F850ADF8000018208DF80300BC
:1013B00003208DF802006946494801F0D5FC04205D
:1013C000ADF8000018208DF8030003208DF802000E
:1013D0006946444801F0C8FC8020ADF80000482070
:1013E0008DF8030003208DF8020069463D4801F0A6
:1013F000BBFC02F007FB31208DF8040000208DF8C3
:1014000005008DF8060001208DF8070001A801F005
:10141000E2FBFFF7D9FE044614B9FFF7D9FD0446F5
:101420001CB93148FFF7D5FB044634B92E49B1F851
:1014300054100804FFF7B8FB04461CB90120FFF75D
:1014400084FB04461CB11E480078032812D12648AC
:1014500090F8560020B1244890F85600012801D198
:101460000A2500E004252846FFF72AFA0120FFF7A5
:101470001DFA044620467CBD10B5002002F0F0FAAB
:10148000002010BD70B58CB006460C4615460121F3
:10149000022001F018FF154802F08AF900211348D4
:1014A00002F053FA09488030019002960395A00893
:1014B000049000200590802006908000079017E09F
:1014C0002C00002030000020781000200080014017
:1014D000A410002060100020000010800080FF8019
:1014E0000010014000140140C810002044040240D4
:1014F00080000890002009904FF400500A900020CE
:101500000B9001A9FA4802F0F5F90121F84802F020
:101510001CFA0CB070BD0146002002E04910421CCC
:10152000D0B20129FAD170472DE9F84F814617460C
:1015300098460A9C4FF0000AD3464D464FF0FF36BE
:10154000B9F1000F02D12620BDE8F88F0020E9494B
:10155000C862E9480078022805D10402780A40EA06
:10156000C8574FEA68280020E44988604860401E58
:101570000860012048610020C8600861084602F048
:10158000B8FADC48406900F0007008B10E20DBE7D3
:10159000002C21DDB4F5006F1EDC601E2040D8B9A0
:1015A0002046FFF7B8FF0090D54804601020D449CA
:1015B0004860402088600020C8604FF48060086167
:1015C000084602F06DFA1020FFF782F98246BAF160
:1015D000000F03D05046B7E72620B5E7009800017A
:1015E000C6498860084644604FF0FF30086001201B
:1015F00048610220C86000200861084602F079FABC
:10160000BF4807601120BE49486040208860002024
:10161000C8604FF480600861084602F041FA11206A
:10162000FFF756F98246BAF1000F01D050468BE71A
:10163000B448007800285AD101F004FA18E04FF4B9
:10164000004002F0A4FA78B14FF0000B06E0A94880
:101650008030006845F82B000BF1010BBBF1080F3F
:10166000F5D32035A84E03E00EB904206CE7761EB2
:10167000A048406B40F22A6108400028DFD00820D3
:1016800002F085FA20B1082002F08BFA04205BE713
:10169000022002F07CFA20B1022002F082FA02203D
:1016A00052E7202002F073FA20B1202002F079FAEC
:1016B000062049E74FF4007002F069FA28B14FF4B0
:1016C000007002F06EFA07203EE703E002F033FA02
:1016D00028602D1D4FF4001002F059FA0028F5D1B2
:1016E00001F0B2F940F2FF5002F05BFA32E08548B7
:1016F000007801282ED1002221464846FFF7C2FE7D
:10170000002082490870824908708249087079482F
:10171000C06B40F22A3108437649C863012002F0C9
:10172000BCF900E0761E72484438006800F40050AE
:1017300038B97848007820B97448007808B9002E84
:10174000F0D10EB90420FFE67048007810B16F4860
:1017500090F800A05046F7E62DE9FF5F174698463F
:10176000DDE90E464FF00009CA464FF0FF356A49E1
:101770000098086000205F49C8625F48007802282E
:1017800005D10402780A40EAC8574FEA68280020C9
:101790005A4988604860401E086001204861002066
:1017A000C8600861084602F0A4F95248406900F098
:1017B000007018B10E2004B0BDE8F09F002C21DDB0
:1017C000B4F5006F1EDC601E2040D8B92046FFF73C
:1017D000A2FE83464A4804601020494948604020E0
:1017E00088600020C8604FF480600861084602F0FD
:1017F00057F91020FFF76CF88146B9F1000F03D0BC
:101800004846D8E72620D6E7012E70D906FB04F01B
:10181000B0F1007F01D32620CDE74FEA0B10374906
:10182000886006FB04F048604FF0FF30086001203C
:1018300048610220C86000200861084602F059F99A
:101840002F48076012202E49486040208860002001
:10185000C8604FF480600861084602F021F9122048
:10186000FFF736F88146B9F1000F01D04846A2E7EC
:101870002448007800287DD101F0E4F81EE04FF400
:10188000004002F084F9A8B14FF0000A08E01948BE
:10189000803000682049096841F82A000AF1010AED
:1018A000BAF1080FF3D31C48006820301A490860C9
:1018B000154D03E00DB904207DE76D1E0D48406B0A
:1018C00040F22A3108400028D9D0082002F05FF900
:1018D00020B1082002F065F904206CE7022002F034
:1018E00056F9D8B1022002F05CF9022063E7A4E0C7
:1018F00044040240008001402C0000208C10002095
:101900007810002034000020FFFF7F003600002008
:10191000350000203700002038000020202002F091
:1019200036F920B1202002F03CF9062043E74FF4BD
:10193000007002F02CF928B14FF4007002F031F978
:10194000072038E709E002F0F6F8FA49096808606C
:10195000F8480068001DF74908604FF4001002F0D5
:1019600016F90028EFD14FF4807002F010F920B37F
:10197000F14800E028E0007838B1EF48007801280D
:1019800003D0ED480078022817D10020EB49086009
:101990000C204860402088600020C8604FF48060C0
:1019A0000861084602F07CF80C20FEF791FF8146A2
:1019B000B9F1000F01D04846FDE601F045F840F2CC
:1019C000FF5002F0EEF838E0DD480078012834D10D
:1019D00006FB04F100220098FFF754FD0020D949CE
:1019E00008700120D84908700020D8490870D848EC
:1019F000C06B40F22A310843D549C8630846C06A23
:101A000040F00800C86200E06D1ED248006800F493
:101A1000005008B9002DF7D10DB90420CBE600BF66
:101A2000CA48007818B9C74800780028F8D0C548D7
:101A3000007810B1C34890F800904846BBE61CB54A
:101A40000446002001900090C34800880004BB4970
:101A500008600D204860402088600020C8604FF476
:101A600080600861084602F01BF8B948406B00909E
:101A700002E0B748406B0090009800F04500002855
:101A8000F7D0012002F083F820B1012002F089F89C
:101A900001201CBD042002F07AF820B1042002F0DD
:101AA00080F80320F5E7AA4800690D2801D010202E
:101AB000EFE740F2FF5002F074F8A548406901904A
:101AC0000198C0F3432020700020E2E72DE9FF5F7A
:101AD00086B017469846149D002600200590049075
:101AE000002481460390824602900195DDF818B0EB
:101AF000DDF818B0BBF1000F03D126200AB0BDE815
:101B0000F09F00209249C862944988604860401E56
:101B10000860012048610020C8600861084601F0A3
:101B2000E8FF8B48406900F0007008B10E20E5E73F
:101B300081480078022805D10502780A40EAC85792
:101B40004FEA6828002D1FDDB5F5006F1CDC681E0C
:101B50002840C8B92846FFF7DEFC059077480560A5
:101B6000102076494860402088600020C8604FF40B
:101B700080600861084601F093FF1020FEF7A8FE80
:101B800006461EB13046B9E72620B7E772480088FE
:101B900000046A4908600D204860402088600020E9
:101BA000C8604FF480600861084601F079FF0D209D
:101BB000FEF78EFE06460EB130469FE76448406948
:101BC00003904FF0FF341BE0641E6348008800045C
:101BD0005A4908600D204860402088600020C86095
:101BE0004FF480600861084601F05AFF0D20FEF7AF
:101BF0006FFE06460EB1304680E7554840690390B7
:101C0000039800F4807008B9002CDDD10CB92920AC
:101C100074E74A48076018204849486040208860B7
:101C20000020C8604FF480600861084601F038FF6A
:101C30001820FEF74DFE06460EB130465EE7002046
:101C4000414908700598000144498860084645608C
:101C50004FF0FF300860012048610020C860086133
:101C6000084601F046FF4FF0FF3435480078002861
:101C70005FD100F0E7FE43E04FF4804001F087FFC2
:101C8000C8B30198A0EB0900202821D20198A0EB4D
:101C9000090000F0030020B90198A0EB09008008BA
:101CA00004E00198A0EB09008008401C02904FF06E
:101CB000000A09E0DBF8000001F041FF0AF1010A27
:101CC0000BF1040B09F1040902988245F2D30FE0ED
:101CD0004FF0000A05E05BF82A0001F030FF0AF13E
:101CE000010ABAF1080FF6D30BF1200B09F1200914
:101CF0006FF0404404E0FFE70CB90420FEE6641EE8
:101D00001348406B40F21A6108400028B4D0082004
:101D100001F03DFF20B1082001F043FF0420EDE673
:101D2000022001F034FFD8B1022001F03AFF022076
:101D3000E4E630E0380000202C000020781000207D
:101D4000340000203600002035000020370000203D
:101D50000080014000040240300000208C10002070
:101D6000102001F014FF20B1102001F01AFF05200F
:101D7000C4E64FF4007001F00AFF28B14FF4007080
:101D800001F00FFF0720B9E600F05EFE40F2FF50C1
:101D9000FC4988633EE0FC48007801283AD11022D3
:101DA00029460698FFF76EFB0020F8490870F849AD
:101DB0000870F8490870F348C06B40F21A310843C4
:101DC000F049C8630846C06A40F00800C86200E0F5
:101DD000641EF148006800F4005008B9002CF7D1E7
:101DE0001CB9FFF7D2FA042088E64FF0FF3400E078
:101DF000641EE848007820B9E448007808B9002C4F
:101E0000F6D10CB9042079E6E048007810B1DF483B
:101E1000007873E640F2FF5001F0C3FE04A8FFF71C
:101E20000EFE064603E004A8FFF709FE06463EB98B
:101E30009DF810000728F6D09DF810000628F2D073
:101E400030465BE62DE9FF5F84B0DDE912470026EE
:101E5000002003900290002580468146019007FBF8
:101E600004FBDDF810A0DDF810A0BAF1000F03D1DB
:101E7000262008B0BDE8F09F0020C249C862C749CB
:101E800088604860401E0860012048610020C860EA
:101E90000861084601F02DFEBA48406900F0007064
:101EA00008B10E20E5E7BE480078022808D10402F8
:101EB000DDE90601400A40EAC1504912CDE90601B8
:101EC000002C1FDDB4F5006F1CDC601E2040C8B97B
:101ED0002046FFF720FB0390B24804601020B14970
:101EE0004860402088600020C8604FF4806008612E
:101EF000084601F0D5FD1020FEF7EAFC06461EB1AB
:101F00003046B6E72620B4E7012F6FD907FB04F06F
:101F1000B0F1007F01D32620ABE7A148007838B1AB
:101F20009F480078012803D09D48007802282DD1D1
:101F30009D48008800049B49086037204860402085
:101F400088600020C8604FF480600861084601F096
:101F5000A7FD3720FEF7BCFC06460EB1304688E7E9
:101F60009048076017208F49486040208860002013
:101F7000C8604FF480600861084601F091FD1720A9
:101F8000FEF7A6FC06460EB1304672E78549069874
:101F9000086019204860402088600020C8604FF425
:101FA00080600861084601F07BFD1920FEF790FC77
:101FB00006460EB130465CE7039800017749886019
:101FC00007FB04F048604FF0FF30086001204861D3
:101FD0000020C8600861084601F08BFD6A4800785F
:101FE000002871D1451E00F02DFD40E0F3E065486A
:101FF000406B00F48040A8B3ABEB080020281ED251
:10200000ABEB080000F0030018B9ABEB0800800848
:1020100003E0ABEB08008008401C01904FF0000982
:1020200009E0DAF8000001F08AFD09F101090AF17E
:10203000040A08F1040801988145F2D30FE04FF03B
:10204000000905E05AF8290001F079FD09F10109BC
:10205000B9F1080FF6D30AF1200A08F120086FF051
:10206000404504E0FFE70DB9042002E76D1E454836
:10207000406B40F21A3108400028B8D0082001F027
:1020800086FD20B1082001F08CFD0420F1E602203D
:1020900001F07DFD20B1022001F083FD0220E8E681
:1020A000102001F074FD20B1102001F07AFD052010
:1020B000DFE64FF4007001F06AFD30B14FF40070BC
:1020C00001F06FFD0720D4E62CE04FF4807001F0A2
:1020D0005EFD00B33248007838B1314800780128FD
:1020E00003D02F480078022815D100202D49086020
:1020F0000C204860402088600020C8604FF4806059
:102100000861084601F0CCFC0C20FEF7E1FB064616
:102110000EB13046ADE600F097FC40F2FF5001F002
:1021200040FD58E018480078012854D107FB04F11D
:1021300010220498FFF7A6F9002014490870012026
:10214000134908700020134908700E48C06B40F214
:102150001A3108430B49C8630846C06A40F00800BA
:10216000C8624FF0FF3500E06D1E0B48006800F4B8
:10217000005008B9002DF7D1C5B9FFF706F90420C2
:1021800077E6000000800140340000203600002087
:102190003500002037000020000402408C10002091
:1021A0002C00002078100020300000204FF0FF3578
:1021B00000E06D1EC248007820B9C248007808B916
:1021C000002DF6D10DB9042053E6BE48007810B1B9
:1021D000BC4800784DE640F2FF5001F0E2FC02A856
:1021E000FFF72DFC064603E002A8FFF728FC064691
:1021F0003EB99DF808000728F6D09DF8080006288B
:10220000F2D0304635E610B5AF48406B00F4807030
:1022100070B3AE480078012814D10020AC490860A2
:102220000C204860402088600020C8604FF4806027
:102230000861084601F034FC0C20FEF749FBA14977
:10224000087002E000209F4908709F48806B40F4AE
:1022500080709D4988630846C06B4CF23A318843D0
:102260009949C8630120964908709648007810BDC6
:10227000022001F08CFC68B1022001F092FC92482F
:10228000C06B4CF23A3188438F49C86302208D49B4
:102290000870ECE7082001F07AFC68B1082001F032
:1022A00080FC8948C06B4CF23A3188438649C86348
:1022B000042084490870DAE7202001F068FC68B146
:1022C000202001F06EFC8048C06B4CF23A3188430C
:1022D0007D49C86306207B490870C8E7102001F0DB
:1022E00056FC68B1102001F05CFC7748C06B4CF2E2
:1022F0003A3188437449C863052072490870B6E7CB
:102300004FF4007001F043FC70B14FF4007001F025
:1023100048FC6D48C06B4CF23A3188436A49C86347
:10232000072068490870A2E70020A0E710B5FFF772
:102330006AFF10BD70B50446002514B9262528464D
:1023400070BD644800880004614908600D20486041
:10235000402088600020C8604FF480600861084613
:1023600001F09EFB0D20FEF7B3FA05460DB128469D
:10237000E6E75548406920602846E1E708B50020B7
:1023800000906846FFF7D6FF08B1FF2008BD00980F
:10239000C0F34320FAE72DE9FE4F83460C469146F1
:1023A00000200290002625462C46700240EAD556B1
:1023B0006D020BF00300F0B14FF0000A18E04FF48B
:1023C000007000904FEA4A20471946EBE0733A4606
:1023D0004148FFF7A9F802904FF400723E49584671
:1023E00001F068FE0BF5007B0AF1010000F0FF0A26
:1023F000CA45E4DB16E0B9F1010F09D14FF40070D2
:102400002A46334600905846FFF78EF8029009E0BE
:102410004FF400702A463346CDE900095846FFF7CD
:102420009BF902900298BDE8FE8F2DE9FE4F814690
:102430000C46924600200290002625462C4670024B
:1024400040EAD5566D0209F00300F0B14FF0000BE1
:1024500018E04FF4007249461F4801F02BFE4FF47C
:10246000007000904FEA4B20471946EBE0733A4664
:102470001948FFF72BFB029009F500790BF10100D9
:1024800000F0FF0BD345E4DB16E0BAF1010F09D1F0
:102490004FF400702A46334600904846FFF716FB7B
:1024A000029009E04FF400702A463346CDE9000A55
:1024B0004846FFF7C7FC02900298BDE8FE8F000077
:1024C0003700002036000020008001403500002049
:1024D000781000203000002020110020FEB50546B5
:1024E000002001900290009000260B208DF804003F
:1024F000280E8DF80500280C8DF80600280A8DF8A6
:102500000700E8B28DF808000020D14908600024D7
:1025100004E001A9085D00F0A5F9641C052CF8DBB6
:10252000002403E0FF2000F09DF9641C042CF9DB7B
:10253000002405E0FF2000F095F90DF80400641C6C
:10254000042CF7DB0120C2490860142000F027FAB0
:102550009DF803009DF8021040EA01209DF801104B
:1025600040EA01409DF8001040EA01663046FEBD99
:10257000FEB504460D460020009001900290022016
:102580008DF80000200E8DF80100200C8DF802005F
:10259000200A8DF80300E0B28DF80400280E8DF8B3
:1025A0000500280C8DF80600280A8DF80700E8B20F
:1025B0008DF808000020A6490860002604E01DF8F8
:1025C000060000F04FF9761C092EF8DB0120A04927
:1025D0000860142000F0E3F9FEBD7CB59DA0006802
:1025E00001900121082000F07BFE4FF48050ADF8EF
:1025F000000010208DF8030003208DF802006946CA
:10260000954800F0B1FB4FF48051934800F059FC1D
:1026100001208F49086000F04CF9002000F08FF98C
:1026200000208E49C1F8B001002407E001A9085D2F
:1026300000F018F90A2000F0B2F9641C022CF5DB56
:10264000012083490860142000F0A9F98448FFF7AD
:1026500045FF20F07E4040F0807529468048FFF716
:1026600087FF7CBD2DE9F04704460F46164604F06F
:102670000308042E02DA0020BDE8F087C8F1040147
:10268000701AC11700EB91718910A0EB810101F064
:10269000FF0900206E4908600B2000F0E3F8200ECF
:1026A00000F0E0F8C4F3074000F0DCF8C4F30720C2
:1026B00000F0D8F8E0B200F0D5F8002504E0FF20E3
:1026C00000F0D0F8681C85B208F10400A842F6DCDE
:1026D000002506E0FF2000F0C5F807F8010B681C94
:1026E00085B2A6EB0900A842F4DC01205849086035
:1026F0002846C1E72DE9F04104460F461646012E53
:1027000001DABDE8F081002051490860022000F0A4
:10271000A9F8200E00F0A6F8C4F3074000F0A2F8D4
:10272000C4F3072000F09EF8E0B200F09BF800250B
:1027300004E0785D00F096F8681C85B2B542F8DBDD
:10274000012043490860142000F029F900BFD8E7B0
:102750002DE9FC410446002000900190002704F080
:1027600003060B208DF80000200E8DF80100200CD0
:102770008DF80200200A8DF80300E0B28DF8040005
:10278000002033490860002504E01DF8050000F032
:1027900069F86D1C052DF8DB002503E0FF2000F033
:1027A00061F86D1C301DA842F8DCFF2000F05AF8DB
:1027B0000746012026490860142000F0F0F838464A
:1027C000BDE8FC81FEB50446002001900290009017
:1027D0004FF6FF7704F003060B208DF80400200E5F
:1027E0008DF80500200C8DF80600200A8DF80700F2
:1027F000E0B28DF80800002015490860002504E0CB
:1028000001A9485D00F02EF86D1C052DF8DB0025B0
:1028100003E0FF2000F026F86D1C301DA842F8DC14
:10282000FF2000F01FF88DF80000FF2000F01AF8DC
:102830008DF80100012006490860142000F0AFF86F
:102840009DF801009DF8001040EA01273846FEBDC2
:10285000B0812142111F0000000C01400080214284
:10286000A0B4330070B50546002405E0601CC4B276
:10287000C82C01DD002070BD02213A4801F0FBFAAE
:102880000028F3D02946374801F0A2FA002405E0D9
:10289000601CC4B2C82C01DD0020ECE701213148E6
:1028A00001F0E9FA0028F3D02E4801F093FAC0B203
:1028B000E1E700B587B00121082000F011FD0121FA
:1028C000880300F01AFD4FF46040ADF8180018209E
:1028D0008DF81B0003208DF81A0006A9224800F08D
:1028E00043FA4FF46041204800F0EBFA0020ADF8C5
:1028F00004004FF48270ADF806000020ADF8080027
:102900000220ADF80A000120ADF80C004002ADF83D
:102910000E003820ADF810000020ADF8120007209E
:10292000ADF8140001A90F4801F07CF901210D4810
:1029300001F01DFAFF20FFF795FF07B000BD10B5AD
:102940000446084800884FF6C771084005490880CA
:1029500008460088204308800121024801F007FA58
:1029600010BD000000380040000C014010B56FF0B1
:10297000040000F07AF92E4800682E49B0FBF1F00F
:102980002D4908700846007800EB4001C1EBC010EB
:102990004FF6FF7101EAC0002849088010BD0146CA
:1029A000254A12784A434FF0E0235A6100229A6187
:1029B0001A46126942F001021A6100BF4FF0E0228C
:1029C000106900F001021AB100F48032002AF5D03B
:1029D0004FF0E022126922F001024FF0E0231A6169
:1029E00000229A6170470146144A12884A434FF008
:1029F000E0235A6100229A611A46126942F00102EC
:102A00001A6100BF4FF0E022106900F001021AB114
:102A100000F48032002AF5D04FF0E022126922F053
:102A200001024FF0E0231A6100229A617047000012
:102A30001400002000127A003C0000203E0000201C
:102A400030BF704772B6704762B6704700BF7047BC
:102A500000BF4A4A128802F04002002AF9D0C2B2EE
:102A6000464B1B1D1A80704710B586B004460121E5
:102A700044F2040000F034FC4FF40070ADF8140090
:102A800003208DF8160018208DF8170005A93C4882
:102A900000F06AF94FF48060ADF8140004208DF85E
:102AA000170005A9364800F05FF925208DF80000D1
:102AB00003208DF801008DF8020001208DF803003D
:102AC000684600F088F801940020ADF80800ADF8E1
:102AD0000A00ADF80C00ADF810000C20ADF80E00A7
:102AE00001A9264800F0A3FC012240F22551234809
:102AF00000F035FD0121214800F025FD06B010BD94
:102B000010B540F225511D4800F00EFE10B31B48D1
:102B100000F08AFDC4B21B48008800F40040C8B928
:102B20001848008800F4804060B10A2C03D00020CF
:102B30001449088020E01348008840F400401149FF
:102B4000088019E00D2C06D10E48008840F4804022
:102B50000C49088010E00B480088C0F30D000A49BA
:102B60000C5408480088401C064908800846008824
:102B7000C72801DD0020088010BD0000003801409A
:102B8000000801404400002020130020094880472D
:102B900009480047FEE7FEE7FEE7FEE7FEE7FEE73F
:102BA000FEE7FEE7FEE7FEE704480549054A064B57
:102BB00070470000AF0600083101000848140020EB
:102BC000481A0020481600204816002031490143C9
:102BD000314A1160704770B5002100230F22C4787C
:102BE00004B32D4C246804F4E064C4F5E064210AC5
:102BF000C1F10403CA40447804FA03F18478144014
:102C000021430901254C0678A155047804F01F05DD
:102C10000124AC4005786D11AD0005F1E025C5F843
:102C2000004109E0047804F01F050124AC401C4D6C
:102C30000678761145F8264070BD1A4A0A400243CC
:102C4000154B1B1F1A60704739B1134A121D1268C9
:102C50000243114B1B1D1A6006E00F4A121D126839
:102C600082430D4B1B1D1A607047042808D14FF09A
:102C7000E021096941F004014FF0E022116107E011
:102C80004FF0E021096921F004014FF0E0221161C9
:102C9000704700000000FA050CED00E000E400E0E1
:102CA00080E100E080FFFF1F10B50446CC4884425D
:102CB00008D10121042000F02DFB0021042000F0A8
:102CC00029FB46E0C748844208D10121082000F0D2
:102CD00021FB0021082000F01DFB3AE0C24884429D
:102CE00008D10121102000F015FB0021102000F078
:102CF00011FB2EE0BD48844208D10121202000F0C4
:102D000009FB0021202000F005FB22E0B8488442A6
:102D100008D10121402000F0FDFA0021402000F000
:102D2000F9FA16E0B348844208D10121802000F06E
:102D3000F1FA0021802000F0EDFA0AE0AE4884426A
:102D400007D10121801500F0E5FA0021A01500F05F
:102D5000E1FA10BD10B50121084600F0DBFA0021B0
:102D6000012000F0D7FA10BD2DE9F0410246002500
:102D70000026002000230024002791F803C00CF057
:102D80000F0591F803C00CF0100CBCF1000F03D03C
:102D900091F802C04CEA050591F800C0BCF1000FA3
:102DA00031D0146800202BE04FF0010C0CFA00F336
:102DB000B1F800C00CEA03069E4220D183004FF018
:102DC0000F0C0CFA03F7BC4305FA03FC4CEA0404AD
:102DD00091F803C0BCF1280F06D14FF0010C0CFA9A
:102DE00000FCC2F814C00AE091F803C0BCF1480F1F
:102DF00005D14FF0010C0CFA00FCC2F810C0401CC9
:102E00000828D1D31460B1F800C0BCF1FF0F34DD45
:102E1000546800202EE000F1080C4FF0010808FA79
:102E20000CF3B1F800C00CEA03069E4221D18300E6
:102E30004FF00F0C0CFA03F7BC4305FA03FC4CEA05
:102E4000040491F803C0BCF1280F05D100F1080C6F
:102E500008FA0CF8C2F8148091F803C0BCF1480FCE
:102E600007D100F1080C4FF0010808FA0CF8C2F87D
:102E70001080401C0828CED35460BDE8F0814FF686
:102E8000FF710180022181700421C17070470246E8
:102E9000002093680B400BB1012000E00020704738
:102EA0000146886880B2704702460020D3680B4014
:102EB0000BB1012000E0002070470146C86880B2D5
:102EC000704701617047416170470AB1016100E0DC
:102ED00041617047C16070474FF480320A4382619C
:102EE0008161826182698269704702460020434B9A
:102EF00018684FF68073184040EA021008433F4BB1
:102F0000186070473E49C8617047F0B50A46002313
:102F100000240021002500F00046B6F1004F02D148
:102F2000364EF16901E0354E7168C0F3034583B256
:102F300000F44016B6F5401F08D121F070612F4E05
:102F4000766826F070662D4F7E6012E000F48016E1
:102F5000B6F5801F06D1032606FA05F4A14341F019
:102F6000706106E0460D360103FA06F6B14341F002
:102F7000706122B1460D360103FA06F6314300F0C6
:102F80000046B6F1004F02D11C4EF16101E01B4E2C
:102F90007160F0BD30B500228B071C0F0F2303FAC0
:102FA00004F2164B08338C1053F824309343134C1F
:102FB00008348D1044F8253023468C1053F8243003
:102FC0008C07240F00FA04F423430C4C08348D10B2
:102FD00044F8253030BD0A49DC31086070470000F4
:102FE00000080140000C01400010014000140140A5
:102FF00000180140001C0140002001400000014079
:1030000000002042DF48006840F00100DD49086010
:1030100008464068DC490840DA49486008460068CC
:10302000DA490840D74908600846006820F4802043
:1030300008600846406820F4FE0048604FF41F0016
:1030400088607047CF49096821F48031CD4A11600A
:103050001146096821F480211160B0F5803F03D04A
:10306000B0F5802F0ED106E0C649096841F48031E1
:10307000C44A116007E0C349096841F4A021C14A6C
:10308000116000E000BF00BF704710B5014600228C
:10309000002300204A11012A02D1BA4C236806E01D
:1030A000022A02D1B74C236A01E0B64C636A01F0F0
:1030B0001F02012494401C400CB1012000E00020BC
:1030C00010BD38B5002000900024002500BF31203D
:1030D000FFF7DBFF05460098401C00900098B0F514
:1030E000A06F01D0002DF2D03120FFF7CEFF08B144
:1030F000012400E00024204638BD01460020A14AFA
:10310000106820F0F80040EAC10010607047A04944
:1031100008607047024600209A4B586820F47C10E3
:1031200042EA01031843974B586070479849086674
:10313000704701460020934A506820F0030008437E
:10314000506070478F48406800F00C00704701469F
:1031500000208C4A506820F0F0000843506070470F
:1031600001460020874A506820F4E0600843506020
:10317000704701460020834A506820F4605040EABE
:10318000C1005060704729B17E4A527A02437D4B9C
:103190005A7204E07B4A527A82437A4B5A727047E1
:1031A0007B49D8310860704701460020754A506855
:1031B00020F440400843506070470021714A20329B
:1031C0001170704A82F82010012802D004280AD118
:1031D00004E001216B4A2032117005E00521694AA3
:1031E0002032117000E000BF00BF704769490860DD
:1031F00070476449096A0143624A11627047654930
:1032000044390860704730B50021002200240023B3
:103210005C4D6D6805F00C0121B1042905D0082929
:1032200023D105E05C4D056022E05B4D05601FE0A9
:10323000544D6D6805F47012524D6D6805F480347C
:10324000022505EB92421CB9544D554305600BE035
:103250004C4D6D6805F400351DB1504D554305606A
:1032600002E04D4D5543056002E04B4D056000BF47
:1032700000BF444D6D6805F0F0010909484D6B5CD5
:103280000568DD4045603F4D6D6805F4E061090A61
:10329000434D6B5C4568DD4085603A4D6D6805F4D3
:1032A0006051C90A3E4D6B5C4568DD40C560354DD7
:1032B0006D6805F44041890B3A4D6B5CC568B5FB00
:1032C000F3F5056130BD29B12E4A526902432D4BF9
:1032D0005A6104E02B4A526982432A4B5A61704773
:1032E00029B1284A92690243264B9A6104E0254A93
:1032F00092698243234B9A61704729B1214AD2696E
:103300000243204BDA6104E01E4AD26982431D4B1E
:10331000DA61704729B11B4AD2680243194BDA605F
:1033200004E0184AD2688243164BDA60704729B12C
:10333000144A12690243134B1A6104E0114A1269DC
:103340008243104B1A617047124940390860704738
:103350000F49C86470470B49C87170470948406AF3
:1033600040F0807007494862704701460020054AD6
:1033700092680A400AB1012000E00020704701492C
:1033800088727047001002400000FFF8FFFFF6FE51
:10339000000042428004424200127A0000093D00CF
:1033A000460000205600002010B50446FB48844229
:1033B00009D101218803FFF7ADFF00214FF48040C0
:1033C000FFF7A8FF32E0F648844209D10121480402
:1033D000FFF7ADFF00214FF40030FFF7A8FF25E015
:1033E000F048844209D101218804FFF7A0FF0021A1
:1033F0004FF48020FFF79BFF18E0EB48844209D18F
:103400000121C804FFF793FF00214FF40020FFF7CC
:103410008EFF0BE0E548844208D101210805FFF743
:1034200086FF00214FF48010FFF781FF10BD2DE9CA
:10343000F04786B005460E460024A24600BFA146CE
:103440000027B08900B100BF2F462C8A4CF6FF70D0
:103450000440F08804432C82AC894EF6F3100440FB
:10346000B08831890843718908430443AC81AC8A30
:103470004FF6FF400440B0890443AC8201A8FFF737
:10348000C2FEC648874202D1DDF810A001E0DDF897
:103490000CA0A88900F4004040B10AEBCA0000EB80
:1034A0000A1031684900B0FBF1F807E00AEBCA00E6
:1034B00000EB0A1031688900B0FBF1F86420B8FB1A
:1034C000F0F004012009642101FB1089A88900F4AF
:1034D000004040B1322000EBC900B0FBF1F000F039
:1034E0000700044308E0322000EB09106421B0FB20
:1034F000F1F000F00F0004432C8106B0BDE8F08726
:103500004FF41651016000218180C18001810C219E
:10351000418100218181704710B502460020108A48
:103520004FF2FF0318400B884C8823438C882343B9
:10353000CC8823431843108210BD002101804180B4
:103540008180C180704721B1828942F4005282811A
:1035500004E082894DF6FF731A4082817047F0B50E
:103560000346002400260025002040F66A17B942D1
:1035700000D100BF1846C1F3421401F01F06012715
:1035800007FA06F5012C01D10C3004E0022C01D120
:10359000103000E014301AB107682F43076002E0D2
:1035A0000768AF430760F0BD1AB1838A0B4383827B
:1035B00002E0838A8B4383827047028A4FF6F0735E
:1035C0001A400282028A0A430282704782894FF2BD
:1035D000FF731A40828182890A438281704721B138
:1035E000828942F00202828104E082894FF6FD73F3
:1035F0001A4082817047028A4FF6DF731A400282B6
:10360000028A0A430282704721B1028A42F4804250
:10361000028204E0028A4BF6FF731A40028270476E
:10362000C1F308028280704701468888C0F3080011
:103630007047818941F0010181817047028BD2B2CC
:103640000283028B42EA012202837047028B02F45A
:103650007F420283028B0A430283704721B1828A30
:1036600042F02002828204E0828A4FF6DF731A4021
:103670008282704721B1828A42F01002828204E085
:10368000828A4FF6EF731A408282704721B1828A94
:1036900042F00802828204E0828A4FF6F7731A40F1
:1036A0008282704721B1828942F40042828103E024
:1036B0008289C2F30E028281704721B1828A42F46C
:1036C0000062828204E0828A4FF2FF731A40828293
:1036D0007047828A4FF6FB731A408282828A0A43BD
:1036E0008282704721B1828A42F00202828204E023
:1036F000828A4FF6FD731A4082827047024600208C
:10370000B1F5007F00D100BF13880B400BB1012041
:1037100000E00020704701F40072B2F5007F00D194
:1037200000BFCA430280704770B5024600240023E0
:103730000025002040F66A16B14200D100BFC1F357
:10374000421501F01F03012606FA03F3012D02D1F1
:103750009689334006E0022D02D1168A334001E0FB
:10376000968A33400C12012606FA04F41688344077
:1037700013B10CB1012000E0002070BD10B5002293
:10378000002340F66A14A14200D100BF0A120124AE
:103790009440A3B2DC43048010BD00000038014017
:1037A0000044004000480040004C004000500040F1
:1037B00001684FF6FE721140016000210160416016
:1037C0008160C1608D49884208D18C4908394968B7
:1037D00041F00F01894A083A51608AE08749143163
:1037E000884208D185490839496841F0F001834A87
:1037F000083A51607DE081492831884208D17F49EB
:103800000839496841F470617C4A083A516070E0B7
:103810007A493C31884208D178490839496841F4ED
:103820007041764A083A516063E0744950318842E9
:1038300008D172490839496841F470216F4A083A41
:10384000516056E06D496431884208D16B490839AE
:10385000496841F47001694A083A516049E0674992
:103860007831884208D165490839496841F070616A
:10387000624A083A51603CE06149884206D1011F22
:10388000096841F00F01021F116032E05C491431F8
:10389000884208D15A49091F096841F0F001584A85
:1038A000121F116025E056492831884208D1544939
:1038B000091F096841F47061514A121F116018E034
:1038C0004F493C31884208D14D49091F096841F4EC
:1038D00070414B4A121F11600BE049495031884238
:1038E00007D14749091F096841F47021444A121F52
:1038F0001160704710B50022026847F6F0739A43D2
:103900000C6A8B6823430C6923434C6923438C69FD
:103910002343CC6923434C6A23438C6A23431A43D1
:103920000260CB6843600B6883604B68C36010BD66
:103930000021016041608160C1600161416181617C
:10394000C161016241628162704721B1026842F047
:103950000102026004E002684FF6FE731A40026042
:1039600070471AB103680B43036002E003688B439E
:1039700003607047416070470146486880B27047F5
:1039800001460020002201F080531BB11C4B083B74
:103990001A6802E0194B083B1A6802EA01030BB1EE
:1039A000012000E00020704700F0805119B1144957
:1039B000091F086002E01149083948607047014654
:1039C0000020002201F080531BB10D4B083B1A6808
:1039D00002E00A4B083B1A6802EA01030BB101201E
:1039E00000E00020704700F0805119B10449091F20
:1039F000086002E001490839486070470800024049
:103A00000804024000206F49086048608860C86070
:103A100048628862C8626C4888630020C863704747
:103A20000021684A516847F6FF629143027D83682E
:103A30001A4343681A43C3681A4303681A43036965
:103A40001A4311435F4A51607047002101750160BC
:103A500041608160C160016170475C4908607047E6
:103A60005849096821F00301564A11601146096856
:103A70000143116070475348006800F0030070472D
:103A800029B1504AD26B02434E4BDA6304E04D4AEF
:103A9000D26B82434B4BDA6370474D4908607047E5
:103AA0000021484B02689A601A46D1686FF30A01F8
:103AB000D0E901231A43C3681A4303691A43114327
:103AC000404AD16070470021016041608160C1605F
:103AD000016170473B480069C0B2704708B50146B4
:103AE0000020009037481430084400900098006887
:103AF00008BD0021334B02685A6242689A621A4636
:103B0000D16A21F0F701D0E902231A4303691A436D
:103B100043691A4311432B4AD16270474FF0FF317A
:103B20000160002141608160C160016141617047B5
:103B30002448006B70472348803000687047214953
:103B40008031086070471F48806C704720491431ED
:103B5000086070471E491831086070471C491C31C5
:103B6000086070471A492031086070471949086099
:103B700070471849091D0860704701218143154AA3
:103B800008321160704713490C31086070470146D4
:103B900000200C4A526B0A400AB1012000E00020CC
:103BA000704708498863704701460020054A526BF8
:103BB0000A400AB1012000E00020704701498863F3
:103BC0007047000000800140FF07C000A0003042A5
:103BD0008C053042AC01304210B50446BE488442E8
:103BE00008D101218014FFF795FB0021A014FFF7F5
:103BF00091FB16E0B948844208D101210014FFF777
:103C000096FB00212014FFF792FB0AE0B44884429F
:103C100007D10121C013FFF78AFB0021E013FFF752
:103C200086FB10BD10B50022028802F441520B88B9
:103C30004C8823438C882343CC8823430C8923431B
:103C40004C8923438C892343CC8923431A43028024
:103C5000838B4FF2FF74234083830B8A038210BD52
:103C60002DE9F04F85B005460C464FF000090227BC
:103C70004FF000084FF0010B0026B246A88B4FF220
:103C800040010840A88302202884B5F81C90A06851
:103C9000022801D100BF38E0A08810B94FF0010B15
:103CA00001E04FF0020B8D48854200D100E000BFDB
:103CB0006846FFF7A8FADDF800A0E088B0F5007FBD
:103CC0000AD14FEA1A2000EB80004000A168B0FB47
:103CD000F1F0401D86B20BE04FEA4B10BAFBF0F05A
:103CE00000EB80004000A168B0FBF1F0401D86B2FF
:103CF0000A20B6FBF0F606F00108A6EB0800C0F3B8
:103D00004F074FF6FF7000EA0828022F01DBFF2F54
:103D100002DD02274FF00008E08840EA080038433F
:103D20002884A088A1890843618808432188084322
:103D300040F4006040EA0909A5F81C9005B0BDE810
:103D4000F08F0021018041808180C180018141810B
:103D50008181C1810721018270470021018041805A
:103D60008180C1800221816000218181704721B161
:103D7000028842F04002028004E002884FF6BF73DE
:103D80001A400280704721B1828B42F480628283A4
:103D900004E0828B4FF6FF331A408283704730B5C0
:103DA000002400230C110125A540ABB21AB185886F
:103DB0001D43858002E085889D43858030BD1AB112
:103DC00083880B43838002E083888B438380704722
:103DD000818170470146888970474FF6FF629142A2
:103DE00004D0028842F48072028004E002884FF618
:103DF000FF631A400280704721B1828842F00402BA
:103E0000828004E082884FF6FB731A4082807047FC
:103E100002884FF2FF731A40028002880A43028030
:103E20007047018841F480510180704721B10288B8
:103E300042F40052028004E002884DF6FF731A40FB
:103E40000280704702460020012901D0108B00E05B
:103E5000908A70470146088A7047B1F5804F04D1B7
:103E6000028842F48042028004E002884BF6FF732D
:103E70001A40028070470246002013890B400BB1A4
:103E8000012000E000207047CA4302817047F0B56E
:103E90000246002000240023002501F00F07012620
:103EA000BE40B4B20B1101269E40B3B2968806EA1A
:103EB00003051689264016B10DB1012000E000204F
:103EC000F0BD10B5002201F00F040123A3409AB207
:103ED000D343038110BD0000003001400038004092
:103EE000003C0040704700000FB4044910B503AA1D
:103EF000029800F0B5F910BC5DF814FB40000020FA
:103F00000FB41CB5074B06AA7B4469460090059880
:103F100000F077F90020694600F086F91CBC5DF8D6
:103F200014FB00001D0300002DE9F0410E4604467D
:103F3000002020622046E168884730B3252805D05C
:103F4000D4E901219047206A401CF2E7E16820464D
:103F500000278847050018D0A5F14100192802D88C
:103F600020354FF400673246294620462760FCF78B
:103F700019F940B1012804D0F61D26F007060836CD
:103F8000D8E7361DD6E72846DAE7206ABDE8F08193
:103F900070B50C460546012A05D02878800600D564
:103FA000EA69002302E0012305E05B1C934202D290
:103FB000E05C0028F9D1A869E618C01AA861286A4F
:103FC000184428622846AFF3008004E0D5E90121B7
:103FD00014F8010B9047B442F8D32846AFF30080A1
:103FE00070BD00002DE9F0410646002410687529D7
:103FF000314616A510D0AFF30080002802DA404207
:1040000013A507E031688A0701D512A502E0490728
:1040100004D511A5012401E0AFF3008000210A229C
:1040200006F1240709E0B0FBF2FCB0FBF2F302FB5F
:104030001C00303078541846491C0028F3D1234620
:104040002A463046BDE8F04100F07DB8000000008F
:104050002D0000002B0000002000000070B5044679
:104060000D4621461068AFF300802188090502D56E
:104070000F4A7A4402E00E4A7A440E32002104F1DB
:10408000240305E000F00F060009965D5E54491C0C
:104090000028F7D120780023000704D5702D02D026
:1040A00009B1022311322046BDE8704000F04BB840
:1040B000DE020000032A40F2308010F0030C00F012
:1040C000158011F8013BBCF1020F624498BF11F852
:1040D00001CB00F8013B38BF11F8013BA2F104020B
:1040E00098BF00F801CB38BF00F8013B11F0030383
:1040F00000F0C880083AC0F0088051F8043B083A44
:1041000051F804CBA0E80810F5E7121D5CBF51F888
:10411000043B40F8043BAFF30080D20724BF11F802
:10412000013B11F801CB48BF11F8012B24BF00F867
:10413000013B00F801CB48BF00F8012B70477047E6
:104140007047704770472DE9F0470D4699469246F3
:10415000044600F124080168880604D5E06921F0CE
:104160001001216000E00120A84201DD471B00E0B2
:104170000027A1697A1902EB0900081AA0612078CA
:10418000C00602D42046AFF30080002608E0D4E940
:1041900001211AF806009047206A401C761C206214
:1041A0004E45F4DB2078C0060AD52046AFF30080E8
:1041B00006E0D4E9012130209047206A401C2062AB
:1041C000381EA7F10107F4DC07E0D4E9012118F853
:1041D00005009047206A401C2062281EA5F10105B9
:1041E000F3DC2046AFF300802078000602D50220E1
:1041F000BDE8F0870120FBE701694A1C02610878ED
:10420000704700B58FB0CDE9013100210591054916
:104210007944CDE9031011466846FFF785FE0FB0DB
:1042200000BD0000E5FFFFFF0A6802F8010B0A600D
:10423000704710B5436913B1AFF3008001E0FFF799
:10424000A7FE012010BD127800F124010A7000229F
:104250004A700122EDE711684FF0FF32E9E70000F4
:10426000074B70B50D467B44FFF7CBFF044628464D
:1042700000F03AF810B14FF0FF3070BD204670BD2D
:10428000E7E7FFFF10B5203AC0F00B80B1E8185007
:10429000203AA0E81850B1E81850A0E81850BFF430
:1042A000F5AF5FEA027C24BFB1E81850A0E81850CF
:1042B00044BF18C918C0BDE810405FEA827C24BF23
:1042C00051F8043B40F8043B08BF7047D20728BFB1
:1042D00031F8023B48BF11F8012B28BF20F8023B00
:1042E00048BF00F8012B7047007B00F0800070474A
:1042F000754600F02BF8AE4605006946534620F09F
:104300000700854618B020B5FEF74EFCBDE82040FA
:104310004FF000064FF000074FF000084FF0000B81
:1043200021F00701AC46ACE8C009ACE8C009ACE834
:10433000C009ACE8C0098D46704710B50446AFF31C
:1043400000802046BDE81040FBF744BF004870479E
:10435000E8130020303132333435363738394142B2
:1043600043444546403058003031323334353637D7
:104370003839616263646566403078009C430008A8
:10438000000000205C0000006C010008F8430008F9
:104390005C000020EC190000880100080041542B4B
:1043A0004D495053454E443D312C00000000000063
:1043B00000A24A0400000000000000000102030403
:1043C00006070809010000000000000000000000CE
:1043D00001000000000000000000000000000000DC
:1043E00000000000000001020304010203040607AC
:0843F0000809020406080000A0
:0400000508000131BD
:00000001FF
