:020000040800F2
:1000000000C60020E1270008C9050008CB0500084C
:10001000CF050008D3050008D70500080000000040
:10002000000000000000000000000000DB050008E8
:10003000DD05000800000000DF050008E1050008FC
:10004000FB270008FB270008FB270008FB27000808
:10005000FB270008FB270008AB030008FB2700086C
:10006000FB270008FB270008ED030008FB2700081A
:10007000FB270008FB270008FB270008FB270008D8
:10008000FB270008FB270008FB270008FB270008C8
:10009000FB270008FB270008FB270008FB270008B8
:1000A000FB270008FB270008FB270008FB270008A8
:1000B000FB270008FB270008FB270008FB27000898
:1000C000FB270008FB270008FB270008FB27000888
:1000D000FB27000827270008FB270008FB2700084C
:1000E000FB270008FB270008FB270008FB27000868
:1000F000FB270008FB270008FB270008FB27000858
:10010000FB27000841230008FB270008FB27000805
:10011000FB270008FB270008FB270008FB27000837
:10012000FB270008FB270008FB270008FB27000827
:1001300000F002F800F03FF80AA090E8000C8244BA
:100140008344AAF10107DA4501D100F034F8AFF297
:10015000090EBAE80F0013F0010F18BFFB1A43F0A5
:1001600001031847C8240300E8240300103A24BF01
:1001700078C878C1FAD8520724BF30C830C144BF0C
:1001800004680C607047000000230024002500264E
:10019000103A28BF78C1FBD8520728BF30C148BFEA
:1001A0000B607047642907F09980002070471FB5E5
:1001B0001FBD10B510BD07F0ABFA1146FFF7F7FFF2
:1001C00000F008F807F0C9FA03B4FFF7F2FF03BC28
:1001D00002F04EFA1CB502F0DBF94FF4A06002F019
:1001E0001FFB4FF4E13002F052FA00F0EBFA00F09E
:1001F0000DFB02F07DF9002003F0BDFB0DE092A0A5
:1002000007F02CF8C82002F000FA9348006808B9FB
:10021000012000E000209049086001F0C0F80028AB
:10022000EDD106F0C7FE8D49012208688CA105F0CA
:1002300050F80DE08BA007F011F8C82002F0E5F9A6
:100240008548006808B9012000E000208249086064
:100250006A4601A9302006F051FF0028EAD1019832
:10026000810A86A006F0FAFF0098810A8AA006F0AB
:10027000F5FF90A006F0F2FF0A2299A1A04805F030
:1002800053F8A04908700846007848B99EA006F0C7
:10029000E5FF012070490860AB49C1F8940112E004
:1002A000AAA006F0DBFF00206B4908600AE04FF4CB
:1002B000967002F0AAF96848001F0068C043A2497E
:1002C000C1F89401F3E7002001906DE0A6480078A2
:1002D000D0B10020604908609B49C1F89401A3A0F7
:1002E00006F0BCFF0FE04FF47A7002F08EF95A4826
:1002F0000068C0439449C1F898010846D0F89401B9
:10030000C043C1F89401EEE79C480088B0F5006F47
:1003100022D19B4B4FF400629A49794805F0A5F928
:10032000784908700846007870B995480068B0F5BB
:10033000006F09D101204849086000208249C1F8B6
:1003400094018E4908802FE08D4802686D4801783D
:100350008DA006F083FF27E097480088B0F5006F76
:1003600022D1874B4FF400629449654805F07DF92E
:10037000644908700846007878B981480068B0F58B
:10038000006F0AD100203449086001206E49C1F88D
:10039000940100208849088006E07948026859489D
:1003A000017879A006F05AFF90E710B50A2002F014
:1003B0002CF90121824802F094FB012812D16A48ED
:1003C000007838B94E4805F09DFA012224A100209A
:1003D00004F07FFF0120204908605B49C1F89401C7
:1003E00061490870012003F0A6FA10BD10B50A207B
:1003F00002F00BF91021734802F073FBF8B95A4868
:10040000007838B93E4805F07DFA012214A1002099
:1004100004F05FFF1048006808B9012000E00020E8
:100420000D4908604848D0F8940108B9012000E05F
:1004300000200949091F086001204B49087010205D
:1004400003F079FA10BD0000534420436172642028
:100450004572726F722100009801234298000020BB
:10046000303A000053442043617264204661746650
:1004700073204572726F72210A00000053442054A9
:100480006F74616C2053697A653A202564202020BE
:10049000204D420D0A00000053442020467265653D
:1004A0002053697A653A202564202020204D420D92
:1004B0000A0000000D0A2A2A2A2A2A2ABCB4BDAB47
:1004C000BDF8D0D0CEC4BCFED0B4C8EBB2E2CAD422
:1004D0002E2E2E202A2A2A2A2A2A0D0A000000005F
:1004E000303A6770735F746573745F646174615CE4
:1004F0006F75745F746573742E6C6F670000000015
:10050000B400002001000020A1B7B4F2BFAA2FB4AC
:10051000B4BDA84661744673B6C1D0B4B2E2CAD4C1
:10052000CEC4BCFE2E747874CEC4BCFEB3C9B9A6CA
:10053000A3ACCFF2CEC4BCFED0B4C8EBCAFDBEDDC6
:10054000A1A30D0A0000000000002342A3A1A3A163
:10055000B4F2BFAA2FB4B4BDA8CEC4BCFECAA7B023
:10056000DCA1A30D0A00000000000020CEC4BCFEE8
:10057000B1A3B4E6B3C9B9A60D0A00005800002023
:1005800004000020A00D0020A3A1A3A1CEC4BCFEA6
:10059000D0B4C8EBCAA7B0DCA3BA287265735F6693
:1005A0006C617368203D202564292C20666E756D72
:1005B000203D2025640A000056000020A0050020F0
:1005C0000008014000180140704700BFFEE700BF6F
:1005D000FEE700BFFEE700BFFEE7704770477047C9
:1005E000704700000CB50020019000906C48006836
:1005F00040F480306A49086000BF6948006800F430
:10060000003000900198401C0190009818B90198A2
:10061000B0F5A06FF1D16248006800F4003010B16D
:100620000120009001E0002000900098012843D1B3
:100630005C48006840F010005A49086008460068AD
:1006400020F0030008600846006840F002000860DF
:100650005348406852494860084640684860084628
:10066000406840F4806048600846406820F47C1090
:1006700048600846406840F4E81048600846006852
:1006800040F08070086000BF4548006800F00070CE
:100690000028F9D04248406820F0030040494860F3
:1006A0000846406840F00200486000BF3C4840688F
:1006B00000F00C000828F9D10CBD10B5FFF792FF2F
:1006C00010BD10B53648006840F00100344908609C
:1006D0000846406834490840314948600846006887
:1006E000324908402E4908600846006820F48020FE
:1006F00008600846406820F4FE0048604FF41F0080
:100700008860FFF7DAFF4FF000602949086010BDEC
:1007100010B5002100200022214B5B6803F00C0182
:1007200021B1042906D0082928D107E0214B224C09
:10073000236027E01F4B204C236023E0184B5B68AD
:1007400003F47010164B5B6803F48032022303EB52
:10075000904022B9194B4343174C23600DE0104BD6
:100760005B6803F4003323B1144B4343124C236002
:1007700003E0104B4343104C236003E00D4B0E4C41
:10078000236000BF00BF064B5B68C3F303130C4C30
:10079000E15C094B1B68CB40074C236010BD000097
:1007A00000100240002002400000FFF8FFFFF6FEAC
:1007B00008ED00E000127A002000002000093D0052
:1007C0002400002008B50121402002F0B3FB4020A6
:1007D000ADF8000010208DF8030003208DF8020012
:1007E0006946094802F0EAF84021074802F093F907
:1007F0002020ADF800006946034802F0DFF8202110
:10080000014802F088F908BD0018014008B501212F
:10081000442002F08FFB1020ADF8000048208DF836
:1008200003006946234802F0C9F80120ADF8000032
:1008300028208DF8030069461F4802F0BFF808BD64
:1008400010B5044614B101201C4908701B480078FB
:10085000F8B11021174802F044F928B101211648D7
:1008600002F03FF9012814D10A2001F0CEFE002049
:100870001249087010210F4802F033F908B901201D
:1008800010BD01210C4802F02CF901280FD10420E1
:10089000F6E71021074802F024F9012807D10121C9
:1008A000054802F01EF910B9012004490870002023
:1008B000E6E7000000180140000801403400002075
:1008C00001460020012900D011B9FE4B197000E04B
:1008D000262070470146FC4A506820F0FF0008437C
:1008E0005060704770B5044605E0F748456B05F069
:1008F000450000B100E0F8E700BF042002F071FFFE
:1009000020B1042002F077FF032070BD012002F027
:1009100068FF20B1012002F06EFF0120F5E7EA48F0
:100920000069A04201D01020EFE740F2FF50E649F5
:1009300088630846406908210840C0B2E5E72DE910
:10094000FC4107460D46002600240020009001903F
:100950000820DE49086010204860402088600020A0
:10096000C8604FF480600861084602F0C3FE1020A2
:10097000FFF7B8FF044614B12046BDE8FC81D44817
:1009800000880004D1490860372048604020886012
:100990000020C8604FF480600861084602F0AAFE9B
:1009A0003720FFF79FFF04460CB12046E5E74FF0E4
:1009B000FF30C84908600820486030208860022065
:1009C000C8600020086101204861084602F0BBFEB3
:1009D0000020BE4908603320486040208860002025
:1009E000C8604FF480600861084602F083FE33203F
:1009F000FFF778FF04460CB12046BEE70CE04FF449
:100A0000001002F0EEFE38B102F0BFFE4DF82600F5
:100A1000761C022E00D306E0AB48406B40F22A6100
:100A200008400028EBD000BF082002F0DAFE20B119
:100A3000082002F0E0FE04209FE7022002F0D1FE31
:100A400020B1022002F0D7FE022096E7202002F01B
:100A5000C8FE20B1202002F0CEFE06208DE74FF424
:100A6000007002F0BEFE28B14FF4007002F0C3FE29
:100A7000072082E740F2FF5002F0BDFE009800061A
:100A8000009901F47F4140EA0120009901F47F01BF
:100A900040EA1120009940EA116068600198000660
:100AA000019901F47F4140EA0120019901F47F019D
:100AB00040EA1120019940EA1160286020465CE775
:100AC0007CB50546002400200090019000260DB161
:100AD000022600E000267C48406900F0007008B162
:100AE0000E207CBD7A49098888B26946FFF727FF46
:100AF00004460CB12046F4E7019800F4802060B36E
:100B0000734800880004714908603720486040201D
:100B100088600020C8604FF480600861084602F0D9
:100B2000E9FD3720FFF7DEFE04460CB12046D8E78A
:100B300066480660062065494860402088600020BD
:100B4000C8604FF480600861084602F0D3FD0620BB
:100B5000FFF7C8FE04462046C3E72520C1E770B56D
:100B6000044600255C480078032801D1272070BD89
:100B70005948007838B158480078012803D05648C1
:100B80000078022818D1022C01D32720EFE7E0B229
:100B9000FFF796FF05467DB94B48406820F4C050EA
:100BA0004949486008464068A1B240EAC120464928
:100BB00048600846406848602846D8E710B50446B3
:100BC0004248046007204149486040208860002076
:100BD000C8604FF480600861084602F08BFD072072
:100BE000FFF780FE10BDF0B50146002000223A4B11
:100BF0001B7881F85630364B1B88A1F85430374BA0
:100C00001B681A0E93090B70C2F383034B7002F03A
:100C100003038B70314B1B68C3F30742CA702F4B21
:100C20001B88C3F307220A712C4B1A784A715B6840
:100C30001A0E1301CB80294B5B68C3F30742CB88A4
:100C400043EA1213CB8002F00F030B72234B9B88F5
:100C5000C3F30722D3094B72C2F380138B72C2F322
:100C60004013CB72C2F300130B7300234B731A4B68
:100C70001B783BB1184B1B78012B03D0164B1B780C
:100C8000032B5ED193071B0D0B61144B1A790B6973
:100C900043EA82030B61114B9B681A0E0B6943EA0E
:100CA00092130B61C2F3C2030B7502F007034B757D
:100CB0000A4B9B68C3F3074253098B75C2F3820347
:100CC000CB750DE04000002000800140F8020020BC
:100CD0003C0000200C0300203800002024030020EA
:100CE00093075B0F0B76F74B1B89C3F307220B7E31
:100CF00043EAD2130B760B695B1C0024C1E9123462
:100D00000B7E9B1C012404FA03F3DC17D1E9125675
:100D1000A5FB037C06FB03C305FB0433C1E9127387
:100D20000C7A0123A3400B650024D1E912650B6DF9
:100D3000A6FB037C05FB03C306FB0433C1E9127366
:100D40002EE0E14B1B78022B2AD1DE4B1A79930659
:100D50009B0A0B61DB4B9B681A0E0B6943EA02236B
:100D60000B61D84B9B68C3F307420B6913430B61BC
:100D7000D44B1B89C3F307220B695B1C4FF400742F
:100D8000A3FB04464FF480630025A4FB037C06FB11
:100D900003C304FB0533C1E912734FF400730B6501
:100DA000C2F3801301F8193F93065B0E4B70C54BDD
:100DB0001A7A4B7843EAD2134B7002F07F038B70A0
:100DC000C04BDB681A0ED309CB70C2F341130B7111
:100DD000C2F382034B7193071B0F8B71B94BDB6816
:100DE000C3F307428B7943EA92138B71C2F340132A
:100DF000CB7100230B7202F001034B72B14B9B8944
:100E0000C3F30722D3098B72C2F38013CB72C2F3F0
:100E100040130B73C2F300134B73C2F381038B7344
:100E200002F00303CB73A74B1A7B53080B74012307
:100E30004B74A64B1B681A0ECA741939A34B1B6856
:100E4000C3F307421402CC85A04B1B88C3F30722CF
:100E5000CB8D1343CB859D4B1A7814060C635B68CE
:100E60001A0E0B6B43EA02440C63984B5B68C3F3A6
:100E700007420B6B43EA02240C63944B9B88C3F339
:100E800007220B6B13430B63904B1A7934235A548C
:100E90008E4B9B681A0E35235A548C4B9B68C3F3B8
:100EA000074214068C63894B1B89C3F307228B6BA3
:100EB00043EA02448C63854B1A7A8B6B43EA022423
:100EC0008C63824BDB681A0E8B6B13438B637F4BF7
:100ED000DB68C3F307423C235B5C43EA12143C2308
:100EE0005C5413071C0DCC87784B9B89C3F30722F6
:100EF000CB8F1343CB87754B1A7B540840235C542C
:100F0000012441235C54F0BD70B500264FF48035B8
:100F100005E06F48446B04F0450000B103E0281E73
:100F2000A5F10105F5D100BF15B104F0040028B109
:100F30000326042002F05FFC304670BD012002F061
:100F400050FC18B10126012002F055FC40F2FF5080
:100F500002F051FC3046F0E72DE9F04105460E461F
:100F60004FF0000805E05A48476B07F0450000B114
:100F700000E0F8E700BF042002F033FC28B10420B1
:100F800002F039FC0320BDE8F081012002F029FCC9
:100F900020B1012002F02FFC0120F4E74C48006949
:100FA000A84201D01020EEE740F2FF5002F023FCEF
:100FB0004748446904F4604018B9200C308040462A
:100FC000E1E704F4005008B11320DCE704F48040AA
:100FD00008B11020D7E704F4004008B10F20D2E791
:100FE0004046D0E738B500240120009002F06DFBA8
:100FF00008B9252038BD34480078042821D00020C5
:101000003449086002204860C02088600020C86021
:101010004FF480600861084602F06CFBFFF774FF34
:1010200004460CB12046E5E7294840692749086095
:101030002748806948602648C06988602448006A5B
:10104000C8602148007858B11F480078012807D0AF
:101050001D480078062803D01B480078022816D1C6
:1010600000201C4908600320486040208860002060
:10107000C8604FF480600861084602F03BFB694697
:101080000320FFF769FF04460CB12046B2E70E4883
:101090000078032820D1BDF8000000040D49086045
:1010A00003204860402088600020C8604FF48060C2
:1010B0000861084602F01EFBFFF726FF04465CB1FC
:1010C000204697E724030020380000203403002046
:1010D00000800140F8020020FE480078042827D054
:1010E000BDF80000FC490860BDF800000004FB49A1
:1010F000086009204860C02088600020C8604FF464
:1011000080600861084602F0F5FAFFF7FDFE04462C
:101110000CB120466EE7F2484069F2490860F04899
:1011200080694860EE48C0698860ED48006AC86020
:1011300000205FE710B505E0E948446B04F0450086
:1011400000B100E0F8E700BF042002F04AFB20B144
:10115000042002F050FB032010BD40F2FF5002F0CB
:101160004AFB0020F8E770B500264FF4803505E013
:10117000DB48446B04F0450000B103E0281EA5F1F4
:101180000105F5D100BF15B104F0040028B1032614
:10119000042002F030FB304670BD04F0400018B16E
:1011A0000026402002F027FB3046F5E770B5002509
:1011B0004FF4803404E0802002F013FB00B103E020
:1011C000201EA4F10104F6D100BF0CB9032070BDAC
:1011D00040F2FF5002F00FFB2846F8E72DE9F047F8
:1011E0000027002400260025A046A146B220BE49C3
:1011F00008750020086048608860C860086108467B
:1012000002F038FA032002F055FA012002F04FFAFA
:1012100000BF12E00020B149086048608860C860E3
:101220004FF480600861084602F064FAFFF7BEFFE1
:10123000044604B903E0781CC7B24A2FEADB00BFBA
:1012400014B12046BDE8F0874FF4D570A34908607B
:1012500008204860402088600020C8604FF480600B
:101260000861084602F046FAFFF77DFF044624B9FC
:101270000120984908704FF0804900209749086084
:1012800037204860402088600020C8604FF48060AC
:101290000861084602F02EFA3720FFF723FB0446C8
:1012A000002C4BD134E000208C4908603720486086
:1012B000402088600020C8604FF4806008610846C4
:1012C00002F018FA3720FFF70DFB04460CB1204658
:1012D000B8E7864849EA000080490860292048604C
:1012E000402088600020C8604FF480600861084694
:1012F00002F000FAFFF71EFF04460CB12046A1E7FA
:1013000077484669012080EAD67080F001086D1C9C
:10131000B8F1000F03D14FF6FF708542C3D34FF6EB
:10132000FF70854202D31B2420468BE706F08040E5
:10133000061E32D00220674908702EE01CE06C487F
:101340006649086001204860402088600020C8602D
:101350004FF480600861084602F0CCF9FFF7EAFE1E
:1013600004460CB120466DE75D484669012080EADD
:10137000D67080F001086D1CB8F1000F03D14FF654
:10138000FF708542DBD34FF6FF70854202D31B24EA
:10139000204657E703204F490870204652E77CB5A6
:1013A000002500240121302001F0C4FD012140F27C
:1013B000024001F0B2FD4FF4F850ADF800001820E3
:1013C0008DF8030003208DF802006946494801F0BA
:1013D000F5FA0420ADF8000018208DF80300032072
:1013E0008DF802006946444801F0E8FA8020ADF823
:1013F000000048208DF8030003208DF802006946A4
:101400003D4801F0DBFA02F027F931208DF80400A5
:1014100000208DF805008DF8060001208DF80700EA
:1014200001A801F002FAFFF7D9FE044614B9FFF74C
:10143000D9FD04461CB93148FFF7D5FB044634B941
:101440002E49B1F854100804FFF7B8FB04461CB944
:101450000120FFF784FB04461CB11E4800780328D6
:1014600012D1264890F8560020B1244890F8560032
:10147000012801D10A2500E004252846FFF72AFAB1
:101480000120FFF71DFA044620467CBD10B5002060
:1014900002F010F9002010BD70B58CB006460C4665
:1014A00015460121022001F038FD154801F0AAFF80
:1014B0000021134802F073F8094880300190029629
:1014C0000395A008049000200590802006908000DD
:1014D000079017E0380000203C000020F8020020B0
:1014E0000080014024030020E00200200000108062
:1014F0000080FF80001001400014014048030020DC
:101500004404024080000890002009904FF40050ED
:101510000A9000200B9001A9FA4802F015F8012169
:10152000F84802F03CF80CB070BD0146002002E023
:101530004910421CD0B20129FAD170472DE9F84F69
:101540008146174698460A9C4FF0000AD3464D46FE
:101550004FF0FF36B9F1000F02D12620BDE8F88F19
:101560000020E949C862E9480078022805D1040250
:10157000780A40EAC8574FEA68280020E4498860A2
:101580004860401E0860012048610020C860086172
:10159000084602F0D8F8DC48406900F0007008B155
:1015A0000E20DBE7002C21DDB4F5006F1EDC601E91
:1015B0002040D8B92046FFF7B8FF0090D548046016
:1015C0001020D4494860402088600020C8604FF453
:1015D00080600861084602F08DF81020FFF782F95C
:1015E0008246BAF1000F03D05046B7E72620B5E790
:1015F00000980001C6498860084644604FF0FF30FB
:101600000860012048610220C86000200861084687
:1016100002F099F8BF4807601120BE494860402099
:1016200088600020C8604FF480600861084602F0BE
:1016300061F81120FFF756F98246BAF1000F01D088
:1016400050468BE7B448007800285AD101F00CF8D6
:1016500018E04FF4004002F0C4F878B14FF0000BEE
:1016600006E0A9488030006845F82B000BF1010B1B
:10167000BBF1080FF5D32035A84E03E00EB90420C6
:101680006CE7761EA048406B40F22A6108400028B3
:10169000DFD0082002F0A5F820B1082002F0ABF856
:1016A00004205BE7022002F09CF820B1022002F047
:1016B000A2F8022052E7202002F093F820B1202067
:1016C00002F099F8062049E74FF4007002F089F81B
:1016D00028B14FF4007002F08EF807203EE703E0D7
:1016E00002F053F828602D1D4FF4001002F079F835
:1016F0000028F5D100F0BAFF40F2FF5002F07BF86D
:1017000032E08548007801282ED100222146484643
:10171000FFF7C2FE002082490870824908708249A2
:1017200008707948C06B40F22A3108437649C86393
:10173000012001F0DCFF00E0761E724844380068AA
:1017400000F4005038B97848007820B9744800781F
:1017500008B9002EF0D10EB90420FFE670480078D9
:1017600010B16F4890F800A05046F7E62DE9FF5FF2
:1017700017469846DDE90E464FF00009CA464FF07D
:10178000FF356A490098086000205F49C8625F48D9
:101790000078022805D10402780A40EAC8574FEAC7
:1017A000682800205A4988604860401E086001206F
:1017B00048610020C8600861084601F0C4FF524833
:1017C000406900F0007018B10E2004B0BDE8F09F31
:1017D000002C21DDB4F5006F1EDC601E2040D8B95E
:1017E0002046FFF7A2FE83464A480460102049497C
:1017F0004860402088600020C8604FF48060086125
:10180000084601F077FF1020FFF76CF88146B9F128
:10181000000F03D04846D8E72620D6E7012E70D91E
:1018200006FB04F0B0F1007F01D32620CDE74FEA9C
:101830000B103749886006FB04F048604FF0FF301A
:101840000860012048610220C86000200861084645
:1018500001F079FF2F48076012202E494860402090
:1018600088600020C8604FF480600861084601F07D
:1018700041FF1220FFF736F88146B9F1000F01D081
:101880004846A2E72448007800287DD100F0ECFE0D
:101890001EE04FF4004001F0A4FFA8B14FF0000A91
:1018A00008E01948803000682049096841F82A009A
:1018B0000AF1010ABAF1080FF3D31C48006820307E
:1018C0001A490860154D03E00DB904207DE76D1E2F
:1018D0000D48406B40F22A3108400028D9D008203A
:1018E00001F07FFF20B1082001F085FF04206CE7A4
:1018F000022001F076FFD8B1022001F07CFF022027
:1019000063E7A4E044040240008001403800002066
:101910000C030020F802002040000020FFFF7F00A1
:10192000420000204100002043000020440000202D
:10193000202001F056FF20B1202001F05CFF06209E
:1019400043E74FF4007001F04CFF28B14FF40070F2
:1019500001F051FF072038E709E001F016FFFA49CE
:1019600009680860F8480068001DF74908604FF4EE
:10197000001001F036FF0028EFD14FF4807001F025
:1019800030FF20B3F14800E028E0007838B1EF489C
:101990000078012803D0ED480078022817D10020F4
:1019A000EB4908600C204860402088600020C86037
:1019B0004FF480600861084601F09CFE0C20FEF7A1
:1019C00091FF8146B9F1000F01D04846FDE600F0D5
:1019D0004DFE40F2FF5001F00EFF38E0DD48007888
:1019E000012834D106FB04F100220098FFF754FDD2
:1019F0000020D94908700120D84908700020D84932
:101A00000870D848C06B40F22A310843D549C863F2
:101A10000846C06A40F00800C86200E06D1ED24867
:101A2000006800F4005008B9002DF7D10DB904206A
:101A3000CBE600BFCA48007818B9C748007800282C
:101A4000F8D0C548007810B1C34890F800904846D7
:101A5000BBE61CB50446002001900090C3480088F6
:101A60000004BB4908600D204860402088600020C9
:101A7000C8604FF480600861084601F03BFEB94839
:101A8000406B009002E0B748406B0090009800F077
:101A900045000028F7D0012001F0A3FE20B101206D
:101AA00001F0A9FE01201CBD042001F09AFE20B126
:101AB000042001F0A0FE0320F5E7AA4800690D28E4
:101AC00001D01020EFE740F2FF5001F094FEA5484E
:101AD000406901900198C0F3432020700020E2E7A4
:101AE0002DE9FF5F86B017469846149D002600201A
:101AF000059004900024814603908246029001954F
:101B0000DDF818B0DDF818B0BBF1000F03D12620C6
:101B10000AB0BDE8F09F00209249C86294498860ED
:101B20004860401E0860012048610020C8600861CC
:101B3000084601F008FE8B48406900F0007008B1CB
:101B40000E20E5E781480078022805D10502780AD1
:101B500040EAC8574FEA6828002D1FDDB5F5006F31
:101B60001CDC681E2840C8B92846FFF7DEFC05903B
:101B70007748056010207649486040208860002042
:101B8000C8604FF480600861084601F0B3FD102082
:101B9000FEF7A8FE06461EB13046B9E72620B7E795
:101BA0007248008800046A4908600D20486040209F
:101BB00088600020C8604FF480600861084601F02A
:101BC00099FD0D20FEF78EFE06460EB130469FE7CA
:101BD0006448406903904FF0FF341BE0641E634883
:101BE000008800045A4908600D2048604020886041
:101BF0000020C8604FF480600861084601F07AFD5B
:101C00000D20FEF76FFE06460EB1304680E75548C0
:101C100040690390039800F4807008B9002CDDD16E
:101C20000CB9292074E74A480760182048494860E1
:101C3000402088600020C8604FF48060086108463A
:101C400001F058FD1820FEF74DFE06460EB1304655
:101C50005EE700204149087005980001444988600A
:101C6000084645604FF0FF300860012048610020C1
:101C7000C8600861084601F066FD4FF0FF34354842
:101C8000007800285FD100F0EFFC43E04FF4804083
:101C900001F0A7FDC8B30198A0EB0900202821D2CC
:101CA0000198A0EB090000F0030020B90198A0EB17
:101CB0000900800804E00198A0EB09008008401C9E
:101CC00002904FF0000A09E0DBF8000001F061FD2E
:101CD0000AF1010A0BF1040B09F10409029882458B
:101CE000F2D30FE04FF0000A05E05BF82A0001F0A4
:101CF00050FD0AF1010ABAF1080FF6D30BF1200BDF
:101D000009F120096FF0404404E0FFE70CB904201A
:101D1000FEE6641E1348406B40F21A61084000283A
:101D2000B4D0082001F05DFD20B1082001F063FD72
:101D30000420EDE6022001F054FDD8B1022001F0AC
:101D40005AFD0220E4E630E0440000203800002084
:101D5000F802002040000020420000204100002046
:101D60004300002000800140000402403C000020AD
:101D70000C030020102001F034FD20B1102001F0F0
:101D80003AFD0520C4E64FF4007001F02AFD28B1A9
:101D90004FF4007001F02FFD0720B9E600F066FC5B
:101DA00040F2FF50FC4988633EE0FC48007801287F
:101DB0003AD1102229460698FFF76EFB0020F84919
:101DC0000870F8490870F8490870F348C06B40F291
:101DD0001A310843F049C8630846C06A40F0080059
:101DE000C86200E0641EF148006800F4005008B9C1
:101DF000002CF7D11CB9FFF7D2FA042088E64FF087
:101E0000FF3400E0641EE848007820B9E448007818
:101E100008B9002CF6D10CB9042079E6E048007826
:101E200010B1DF48007873E640F2FF5001F0E3FCA8
:101E300004A8FFF70EFE064603E004A8FFF709FE1C
:101E400006463EB99DF810000728F6D09DF8100010
:101E50000628F2D030465BE62DE9FF5F84B0DDE96D
:101E600012470026002003900290002580468146FC
:101E7000019007FB04FBDDF810A0DDF810A0BAF11B
:101E8000000F03D1262008B0BDE8F09F0020C24912
:101E9000C862C74988604860401E086001204861E8
:101EA0000020C8600861084601F04DFCBA4840694E
:101EB00000F0007008B10E20E5E7BE480078022867
:101EC00008D10402DDE90601400A40EAC150491286
:101ED000CDE90601002C1FDDB4F5006F1CDC601E8F
:101EE0002040C8B92046FFF720FB0390B2480460A9
:101EF0001020B1494860402088600020C8604FF43D
:101F000080600861084601F0F5FB1020FEF7EAFC4E
:101F100006461EB13046B6E72620B4E7012F6FD93A
:101F200007FB04F0B0F1007F01D32620ABE7A14806
:101F3000007838B19F480078012803D09D48007888
:101F400002282DD19D48008800049B490860372055
:101F50004860402088600020C8604FF480600861BD
:101F6000084601F0C7FB3720FEF7BCFC06460EB161
:101F7000304688E79048076017208F494860402026
:101F800088600020C8604FF480600861084601F056
:101F9000B1FB1720FEF7A6FC06460EB1304672E7ED
:101FA0008549069808601920486040208860002014
:101FB000C8604FF480600861084601F09BFB19205F
:101FC000FEF790FC06460EB130465CE70398000130
:101FD0007749886007FB04F048604FF0FF300860E5
:101FE000012048610020C8600861084601F0ABFB91
:101FF0006A480078002871D1451E00F035FB40E0AA
:10200000F3E06548406B00F48040A8B3ABEB0800F8
:1020100020281ED2ABEB080000F0030018B9ABEB90
:102020000800800803E0ABEB08008008401C01902A
:102030004FF0000909E0DAF8000001F0AAFB09F10D
:1020400001090AF1040A08F1040801988145F2D354
:102050000FE04FF0000905E05AF8290001F099FB64
:1020600009F10109B9F1080FF6D30AF1200A08F1C4
:1020700020086FF0404504E0FFE70DB9042002E7B7
:102080006D1E4548406B40F21A3108400028B8D018
:10209000082001F0A6FB20B1082001F0ACFB0420D1
:1020A000F1E6022001F09DFB20B1022001F0A3FB2C
:1020B0000220E8E6102001F094FB20B1102001F08E
:1020C0009AFB0520DFE64FF4007001F08AFB30B187
:1020D0004FF4007001F08FFB0720D4E62CE04FF4A2
:1020E000807001F07EFB00B33248007838B131488F
:1020F0000078012803D02F480078022815D100204D
:102100002D4908600C204860402088600020C8608D
:102110004FF480600861084601F0ECFA0C20FEF7ED
:10212000E1FB06460EB13046ADE600F09FFA40F204
:10213000FF5001F060FB58E018480078012854D1A6
:1021400007FB04F110220498FFF7A6F900201449B8
:1021500008700120134908700020134908700E48C8
:10216000C06B40F21A3108430B49C8630846C06A85
:1021700040F00800C8624FF0FF3500E06D1E0B48CC
:10218000006800F4005008B9002DF7D1C5B9FFF779
:1021900006F9042077E6000000800140400000209E
:1021A00042000020410000204300002000040240C3
:1021B0000C03002038000020F80200203C00002022
:1021C0004FF0FF3500E06D1EC248007820B9C248CC
:1021D000007808B9002DF6D10DB9042053E6BE48A9
:1021E000007810B1BC4800784DE640F2FF5001F095
:1021F00002FB02A8FFF72DFC064603E002A8FFF74A
:1022000028FC06463EB99DF808000728F6D09DF840
:1022100008000628F2D0304635E610B5AF48406BCE
:1022200000F4807070B3AE480078012814D100200B
:10223000AC4908600C204860402088600020C860DD
:102240004FF480600861084601F054FA0C20FEF754
:1022500049FBA149087002E000209F4908709F488F
:10226000806B40F480709D4988630846C06B4CF2D7
:102270003A3188439949C8630120964908709648C5
:10228000007810BD022001F0ACFA68B1022001F024
:10229000B2FA9248C06B4CF23A3188438F49C86316
:1022A00002208D490870ECE7082001F09AFA68B125
:1022B000082001F0A0FA8948C06B4CF23A318843FB
:1022C0008649C863042084490870DAE7202001F0B9
:1022D00088FA68B1202001F08EFA8048C06B4CF279
:1022E0003A3188437D49C86306207B490870C8E7B6
:1022F000102001F076FA68B1102001F07CFA7748DE
:10230000C06B4CF23A3188437449C8630520724966
:102310000870B6E74FF4007001F063FA70B14FF443
:10232000007001F068FA6D48C06B4CF23A31884396
:102330006A49C863072068490870A2E70020A0E73F
:1023400010B5FFF76AFF10BD70B50446002514B93B
:102350002625284670BD644800880004614908604D
:102360000D204860402088600020C8604FF48060E5
:102370000861084601F0BEF90D20FEF7B3FA0546E4
:102380000DB12846E6E75548406920602846E1E758
:1023900008B5002000906846FFF7D6FF08B1FF207F
:1023A00008BD0098C0F34320FAE72DE9FE4F8346AD
:1023B0000C46914600200290002625462C467002CD
:1023C00040EAD5566D020BF00300F0B14FF0000A61
:1023D00018E04FF4007000904FEA4A20471946EB8E
:1023E000E0733A464148FFF7A9F802904FF40072B3
:1023F0003E49584604F0D2FF0BF5007B0AF101007C
:1024000000F0FF0ACA45E4DB16E0B9F1010F09D17B
:102410004FF400702A46334600905846FFF78EF876
:10242000029009E04FF400702A463346CDE90009D6
:102430005846FFF79BF902900298BDE8FE8F2DE900
:10244000FE4F81460C46924600200290002625460B
:102450002C46700240EAD5566D0209F00300F0B137
:102460004FF0000B18E04FF4007249461F4804F08B
:1024700095FF4FF4007000904FEA4B20471946EB50
:10248000E0733A461948FFF72BFB029009F50079F3
:102490000BF1010000F0FF0BD345E4DB16E0BAF1CD
:1024A000010F09D14FF400702A4633460090484688
:1024B000FFF716FB029009E04FF400702A463346FE
:1024C000CDE9000A4846FFF7C7FC02900298BDE834
:1024D000FE8F0000430000204200002000800140E9
:1024E00041000020F80200203C000020A003002052
:1024F0000EB5FEF78BF90121084600F01BFD042103
:10250000084600F071FB1020019000208DF80800B3
:102510000C208DF8090001A801F096F90021084669
:1025200000F062FB0120019008208DF8090001A84D
:1025300001F08AF906208DF8000002208DF80100D4
:1025400003208DF8020001208DF80300684600F09A
:102550006CF909208DF8000002208DF8010001209F
:102560008DF802008DF80300684600F05EF90A203D
:102570008DF8000002208DF8010000208DF8020087
:1025800001208DF80300684600F04FF90EBD0000F1
:1025900010B56FF0040000F092F92E4800682E4943
:1025A000B0FBF1F02D4908700846007800EB4001BF
:1025B000C1EBC0104FF6FF7101EAC0002849088046
:1025C00010BD0146254A12784A434FF0E0235A6174
:1025D00000229A611A46126942F001021A6100BF94
:1025E0004FF0E022106900F001021AB100F48032CD
:1025F000002AF5D04FF0E022126922F001024FF0DC
:10260000E0231A6100229A6170470146144A128839
:102610004A434FF0E0235A6100229A611A46126938
:1026200042F001021A6100BF4FF0E022106900F091
:1026300001021AB100F48032002AF5D04FF0E022F6
:10264000126922F001024FF0E0231A6100229A6120
:10265000704700002000002000127A00480000208F
:102660004A00002030BF704772B6704762B67047AC
:10267000014600BF704700BF514A128802F0400275
:10268000002AF9D0C2B24E4B1B1D1A80704710B5FC
:1026900086B00446012144F2040000F04BFC4FF4E4
:1026A0000070ADF8140003208DF8160018208DF886
:1026B000170005A9434800F081F94FF48060ADF898
:1026C000140004208DF8170005A93E4800F076F9A3
:1026D00025208DF8000003208DF801008DF8020000
:1026E00001208DF80300684600F09FF80194002057
:1026F000ADF80800ADF80A00ADF80C00ADF8100018
:102700000C20ADF80E0001A92D4800F0BAFC012202
:1027100040F225512A4800F04CFD0121284800F0E4
:102720003CFD06B010BD10B540F22551244800F024
:1027300025FE002842D0224800F0A0FD2249087062
:1027400022480078E8B122480088B0F5006F0DD12A
:1027500000201E4908701C4801781E480288008825
:10276000401C1C4B18801C48815427E016480178F7
:10277000174802880088401C154B18801748815460
:102780001CE014480088B0F5006F0DD101200F49FE
:1027900008700D4802780E4801880088401C0C4BD8
:1027A00018800E48425409E0074802780948018819
:1027B0000088401C074B18800748425410BD000099
:1027C00000380140000801404C0000205400002067
:1027D0005600002058000020A00D0020A005002079
:1027E0000948804709480047FEE7FEE7FEE7FEE7A5
:1027F000FEE7FEE7FEE7FEE7FEE7FEE704480549E1
:10280000054A064B70470000C30600083101000866
:1028100000C0002000C6002000C2002000C200202E
:1028200031490143314A1160704770B500210023DE
:102830000F22C47804B32D4C246804F4E064C4F57A
:10284000E064210AC1F10403CA40447804FA03F1A8
:102850008478144021430901254C0678A155047859
:1028600004F01F050124AC4005786D11AD0005F1A1
:10287000E025C5F8004109E0047804F01F050124B3
:10288000AC401C4D0678761145F8264070BD1A4ABA
:102890000A400243154B1B1F1A60704739B1134A97
:1028A000121D12680243114B1B1D1A6006E00F4AED
:1028B000121D126882430D4B1B1D1A6070470428BD
:1028C00008D14FF0E021096941F004014FF0E02206
:1028D000116107E04FF0E021096921F004014FF098
:1028E000E0221161704700000000FA050CED00E0E5
:1028F00000E400E080E100E080FFFF1F10B5044627
:10290000CC48844208D10121042000F02DFB002195
:10291000042000F029FB46E0C748844208D1012189
:10292000082000F021FB0021082000F01DFB3AE008
:10293000C248844208D10121102000F015FB00217B
:10294000102000F011FB2EE0BD48844208D1012187
:10295000202000F009FB0021202000F005FB22E0F0
:10296000B848844208D10121402000F0FDFA00213E
:10297000402000F0F9FA16E0B348844208D1012162
:10298000802000F0F1FA0021802000F0EDFA0AE04A
:10299000AE48844207D10121801500F0E5FA0021FC
:1029A000A01500F0E1FA10BD10B50121084600F0B5
:1029B000DBFA0021012000F0D7FA10BD2DE9F0412B
:1029C000024600250026002000230024002791F85D
:1029D00003C00CF00F0591F803C00CF0100CBCF113
:1029E000000F03D091F802C04CEA050591F800C031
:1029F000BCF1000F31D0146800202BE04FF0010C27
:102A00000CFA00F3B1F800C00CEA03069E4220D194
:102A100083004FF00F0C0CFA03F7BC4305FA03FCDC
:102A20004CEA040491F803C0BCF1280F06D14FF022
:102A3000010C0CFA00FCC2F814C00AE091F803C0C3
:102A4000BCF1480F05D14FF0010C0CFA00FCC2F8A4
:102A500010C0401C0828D1D31460B1F800C0BCF1EC
:102A6000FF0F34DD546800202EE000F1080C4FF019
:102A7000010808FA0CF3B1F800C00CEA03069E4204
:102A800021D183004FF00F0C0CFA03F7BC4305FA79
:102A900003FC4CEA040491F803C0BCF1280F05D1F3
:102AA00000F1080C08FA0CF8C2F8148091F803C081
:102AB000BCF1480F07D100F1080C4FF0010808FAEB
:102AC0000CF8C2F81080401C0828CED35460BDE832
:102AD000F0814FF6FF710180022181700421C170E5
:102AE00070470246002093680B400BB1012000E0C4
:102AF000002070470146886880B270470246002077
:102B0000D3680B400BB1012000E000207047014664
:102B1000C86880B2704701617047416170470AB16F
:102B2000016100E041617047C16070474FF480323D
:102B30000A438261816182618269826970470246CB
:102B40000020434B18684FF68073184040EA02108B
:102B500008433F4B186070473E49C8617047F0B565
:102B60000A46002300240021002500F00046B6F1AB
:102B7000004F02D1364EF16901E0354E7168C0F365
:102B8000034583B200F44016B6F5401F08D121F08A
:102B900070612F4E766826F070662D4F7E6012E0D1
:102BA00000F48016B6F5801F06D1032606FA05F458
:102BB000A14341F0706106E0460D360103FA06F6C6
:102BC000B14341F0706122B1460D360103FA06F6B9
:102BD000314300F00046B6F1004F02D11C4EF161C6
:102BE00001E01B4E7160F0BD30B500228B071C0F59
:102BF0000F2303FA04F2164B08338C1053F82430D9
:102C00009343134C08348D1044F8253023468C1020
:102C100053F824308C07240F00FA04F423430C4C9F
:102C200008348D1044F8253030BD0A49DC31086085
:102C30007047000000080140000C014000100140F6
:102C40000014014000180140001C01400020014018
:102C50000000014000002042DF48006840F0010011
:102C6000DD49086008464068DC490840DA494860A8
:102C700008460068DA490840D749086008460068F5
:102C800020F4802008600846406820F4FE00486078
:102C90004FF41F0088607047CF49096821F48031E4
:102CA000CD4A11601146096821F480211160B0F508
:102CB000803F03D0B0F5802F0ED106E0C6490968E9
:102CC00041F48031C44A116007E0C349096841F406
:102CD000A021C14A116000E000BF00BF704710B5DD
:102CE00001460022002300204A11012A02D1BA4CD9
:102CF000236806E0022A02D1B74C236A01E0B64CF1
:102D0000636A01F01F02012494401C400CB10120B1
:102D100000E0002010BD38B5002000900024002500
:102D200000BF3120FFF7DBFF05460098401C0090F4
:102D30000098B0F5A06F01D0002DF2D03120FFF740
:102D4000CEFF08B1012400E00024204638BD014632
:102D50000020A14A106820F0F80040EAC10010608D
:102D60007047A04908607047024600209A4B586897
:102D700020F47C1042EA01031843974B58607047D7
:102D800098490866704701460020934A506820F031
:102D900003000843506070478F48406800F00C0003
:102DA0007047014600208C4A506820F0F00008432C
:102DB0005060704701460020874A506820F4E06068
:102DC00008435060704701460020834A506820F451
:102DD000605040EAC1005060704729B17E4A527A83
:102DE00002437D4B5A7204E07B4A527A82437A4B0B
:102DF0005A7270477B49D8310860704701460020FD
:102E0000754A506820F440400843506070470021E4
:102E1000714A20321170704A82F82010012802D0C5
:102E200004280AD104E001216B4A2032117005E028
:102E30000521694A2032117000E000BF00BF7047D1
:102E40006949086070476449096A0143624A11622E
:102E50007047654944390860704730B50021002249
:102E6000002400235C4D6D6805F00C0121B104299C
:102E700005D0082923D105E05C4D056022E05B4DBB
:102E800005601FE0544D6D6805F47012524D6D6879
:102E900005F48034022505EB92421CB9544D55438C
:102EA00005600BE04C4D6D6805F400351DB1504DCB
:102EB0005543056002E04D4D5543056002E04B4D22
:102EC000056000BF00BF444D6D6805F0F0010909C1
:102ED000484D6B5C0568DD4045603F4D6D6805F40D
:102EE000E061090A434D6B5C4568DD4085603A4D01
:102EF0006D6805F46051C90A3E4D6B5C4568DD4064
:102F0000C560354D6D6805F44041890B3A4D6B5CE9
:102F1000C568B5FBF3F5056130BD29B12E4A52698C
:102F200002432D4B5A6104E02B4A526982432A4BDB
:102F30005A61704729B1284A92690243264B9A6127
:102F400004E0254A92698243234B9A61704729B174
:102F5000214AD2690243204BDA6104E01E4AD26959
:102F600082431D4BDA61704729B11B4AD268024384
:102F7000194BDA6004E0184AD2688243164BDA60D3
:102F8000704729B1144A12690243134B1A6104E0D5
:102F9000114A12698243104B1A6170471249403935
:102FA000086070470F49C86470470B49C871704783
:102FB0000948406A40F080700749486270470146FE
:102FC0000020054A92680A400AB1012000E0002072
:102FD0007047014988727047001002400000FFF8F6
:102FE000FFFFF6FE000042428004424200127A00D7
:102FF00000093D005A0000206A00002010B5044678
:10300000FB48844209D101218803FFF7ADFF00216D
:103010004FF48040FFF7A8FF32E0F648844209D120
:1030200001214804FFF7ADFF00214FF40030FFF706
:10303000A8FF25E0F048844209D101218804FFF768
:10304000A0FF00214FF48020FFF79BFF18E0EB4822
:10305000844209D10121C804FFF793FF00214FF4F6
:103060000020FFF78EFF0BE0E548844208D10121E4
:103070000805FFF786FF00214FF48010FFF781FF5E
:1030800010BD2DE9F04786B005460E460024A24645
:1030900000BFA1460027B08900B100BF2F462C8A8F
:1030A0004CF6FF700440F08804432C82AC894EF645
:1030B000F3100440B0883189084371890843044300
:1030C000AC81AC8A4FF6FF400440B0890443AC8227
:1030D00001A8FFF7C2FEC648874202D1DDF810A062
:1030E00001E0DDF80CA0A88900F4004040B10AEB33
:1030F000CA0000EB0A1031684900B0FBF1F807E0A4
:103100000AEBCA0000EB0A1031688900B0FBF1F845
:103110006420B8FBF0F004012009642101FB108950
:10312000A88900F4004040B1322000EBC900B0FB98
:10313000F1F000F00700044308E0322000EB091032
:103140006421B0FBF1F000F00F0004432C8106B0C5
:10315000BDE8F0874FF41651016000218180C180E5
:1031600001810C21418100218181704710B5024607
:103170000020108A4FF2FF0318400B884C8823432D
:103180008C882343CC8823431843108210BD002130
:10319000018041808180C180704721B1828942F4E1
:1031A0000052828104E082894DF6FF731A408281C9
:1031B0007047F0B50346002400260025002040F6A5
:1031C0006A17B94200D100BF1846C1F3421401F09A
:1031D0001F06012707FA06F5012C01D10C3004E087
:1031E000022C01D1103000E014301AB107682F43CF
:1031F000076002E00768AF430760F0BD1AB1838A39
:103200000B43838202E0838A8B4383827047028A66
:103210004FF6F0731A400282028A0A430282704714
:1032200082894FF2FF731A40828182890A43828128
:10323000704721B1828942F00202828104E08289D2
:103240004FF6FD731A4082817047028A4FF6DF7392
:103250001A400282028A0A430282704721B1028A1E
:1032600042F48042028204E0028A4BF6FF731A4065
:1032700002827047C1F30802828070470146888845
:10328000C0F308007047818941F0010181817047D6
:10329000028BD2B20283028B42EA01220283704780
:1032A000028B02F47F420283028B0A43028370473F
:1032B00021B1828A42F02002828204E0828A4FF6A3
:1032C000DF731A408282704721B1828A42F0100275
:1032D000828204E0828A4FF6EF731A40828270473E
:1032E00021B1828A42F00802828204E0828A4FF68B
:1032F000F7731A408282704721B1828942F40042FA
:10330000828103E08289C2F30E028281704721B17B
:10331000828A42F40062828204E0828A4FF2FF7362
:103320001A4082827047828A4FF6FB731A4082826B
:10333000828A0A438282704721B1828A42F0020265
:10334000828204E0828A4FF6FD731A4082827047BF
:1033500002460020B1F5007F00D100BF13880B406A
:103360000BB1012000E00020704701F40072B2F5BB
:10337000007F00D100BFCA430280704770B502468B
:10338000002400230025002040F66A16B14200D137
:1033900000BFC1F3421501F01F03012606FA03F333
:1033A000012D02D19689334006E0022D02D1168A02
:1033B000334001E0968A33400C12012606FA04F4E9
:1033C0001688344013B10CB1012000E0002070BD1C
:1033D00010B50022002340F66A14A14200D100BFBC
:1033E0000A1201249440A3B2DC43048010BD000003
:1033F000003801400044004000480040004C0040BC
:103400000050004001684FF6FE721140016000213B
:10341000016041608160C1608D49884208D18C495A
:103420000839496841F00F01894A083A51608AE039
:1034300087491431884208D185490839496841F0E3
:10344000F001834A083A51607DE081492831884281
:1034500008D17F490839496841F470617C4A083ACB
:10346000516070E07A493C31884208D17849083986
:10347000496841F47041764A083A516063E0744902
:103480005031884208D172490839496841F47021A5
:103490006F4A083A516056E06D496431884208D15C
:1034A0006B490839496841F47001694A083A51602A
:1034B00049E067497831884208D165490839496847
:1034C00041F07061624A083A51603CE061498842CB
:1034D00006D1011F096841F00F01021F116032E09F
:1034E0005C491431884208D15A49091F096841F0E2
:1034F000F001584A121F116025E0564928318842D0
:1035000008D15449091F096841F47061514A121FDA
:10351000116018E04F493C31884208D14D49091FDC
:10352000096841F470414B4A121F11600BE0494990
:103530005031884207D14749091F096841F4702179
:10354000444A121F1160704710B50022026847F606
:10355000F0739A430C6A8B6823430C6923434C69CC
:1035600023438C692343CC6923434C6A23438C6AED
:1035700023431A430260CB6843600B6883604B6847
:10358000C36010BD0021016041608160C1600161C4
:1035900041618161C161016241628162704721B113
:1035A000026842F00102026004E002684FF6FE7316
:1035B0001A40026070471AB103680B43036002E0CF
:1035C00003688B4303607047416070470146486859
:1035D00080B2704701460020002201F080531BB1E9
:1035E0001C4B083B1A6802E0194B083B1A6802EAB8
:1035F00001030BB1012000E00020704700F0805172
:1036000019B11449091F086002E0114908394860DE
:10361000704701460020002201F080531BB10D4B82
:10362000083B1A6802E00A4B083B1A6802EA0103E9
:103630000BB1012000E00020704700F0805119B16B
:103640000449091F086002E00149083948607047D1
:10365000080002400804024000206F4908604860EA
:103660008860C86048628862C8626C4888630020CD
:10367000C86370470021684A516847F6FF6291436A
:10368000027D83681A4343681A43C3681A43036878
:103690001A4303691A4311435F4A5160704700217E
:1036A0000175016041608160C160016170475C49E2
:1036B000086070475849096821F00301564A1160B3
:1036C000114609680143116070475348006800F0D3
:1036D0000300704729B1504AD26B02434E4BDA6364
:1036E00004E04D4AD26B82434B4BDA6370474D493D
:1036F000086070470021484B02689A601A46D168FA
:103700006FF30A01D0E901231A43C3681A4303691E
:103710001A431143404AD160704700210160416063
:103720008160C160016170473B480069C0B2704769
:1037300008B5014600200090374814300844009036
:103740000098006808BD0021334B02685A62426845
:103750009A621A46D16A21F0F701D0E902231A438E
:1037600003691A4343691A4311432B4AD1627047D4
:103770004FF0FF310160002141608160C160016153
:10378000416170472448006B7047234880300068CF
:10379000704721498031086070471F48806C70472E
:1037A00020491431086070471E491831086070477D
:1037B0001C491C31086070471A4920310860704765
:1037C0001949086070471849091D086070470121B0
:1037D0008143154A08321160704713490C31086063
:1037E0007047014600200C4A526B0A400AB1012082
:1037F00000E00020704708498863704701460020B8
:10380000054A526B0A400AB1012000E000207047CF
:10381000014988637047000000800140FF07C00035
:10382000A00030428C053042AC01304200204449B7
:103830000860091D0860091D0860091D08604148ED
:103840003F4914310860704700213D498279002AC0
:103850003AD00A46126803689A430B461A600A1D5A
:10386000126803689A430B1D1A60027911440A68B2
:1038700003681A430A60324A0832126803689A439E
:103880002F4B08331A601A1D126803689A432C4B99
:103890000C331A604279102A0ED11A1F126803687D
:1038A0001A43274B08331A601A1D126803681A431B
:1038B000234B0C331A600DE02149427911440A6808
:1038C00003681A430A6005E0027911440A68036834
:1038D0009A430A6070470021016001710C21417117
:1038E0000021817170471649103109680143144A5B
:1038F00010321160704701460020114A14321268DC
:103900000A400AB1012000E0002070470C49143140
:1039100008607047014600200022094B1B6803EA3B
:103920000102074B14331B680B4013B10AB101208D
:1039300000E0002070470249143108607047000021
:1039400000040140FFFF0F0070B503460C4603E082
:1039500014F8015B03F8015B151EA2F10102F7D117
:1039600070BD30B5034601E003F8011B141EA2F13F
:103970000102F9D130BD10B504467A4951F824103E
:103980004A00794951F824000021FFF7EAFF7749FE
:1039900051F824207449083951F824000021FFF718
:1039A000E0FF012170480830015510BD10B50146F7
:1039B0000023002207E06C4850F8210030F8120084
:1039C00000B15B1C521C674850F821009042F2D8AD
:1039D00064205843634C54F82140B0FBF4F0C0B26B
:1039E00010BD2DE9F04704460F460025A9465E4864
:1039F0000830005D20B95C481038016820468847CF
:103A00001FB94FF0FF30BDE8F087594850F8240047
:103A1000B7FBF0F6564850F82400B7FBF0F100FB76
:103A2000117000B1761C4F4850F82400451E20E06C
:103A30004D4850F8240030F8150010B909F101097B
:103A400001E04FF00009B14512D14FF0000808E045
:103A5000454850F8240005EB080220F8126008F1F0
:103A60000108B045F4D3424850F824006843CAE73F
:103A70006D1E002DDCDA4FF0FF30C4E72DE9F04178
:103A800004460E4638480830005D38B936481038CC
:103A90000168204688470120BDE8F081334850F88E
:103AA0002400B04217D9324850F82400B6FBF0F198
:103AB0002D4850F8240030F81120002507E000239D
:103AC000294850F824004F1920F817306D1C9542F2
:103AD000F5DB0020E0E70220DEE770B505460C4686
:103AE00004B970BD2048083850F82500261A314620
:103AF0002846FFF7C3FF00BFF3E770B504460E4644
:103B000031462046FFF76DFF0546681C08B90020C6
:103B100070BD1548083850F824002844F8E72DE90E
:103B2000F04104460F46164631462046FFF759FF3E
:103B30000546681C10B90020BDE8F0810A49083923
:103B400051F82410481932463946FFF7FDFE394630
:103B50002046FFF7C2FF0448083850F824002844E4
:103B6000EAE70000747700088000002084770008EE
:103B70007C77000801460020704770B50446002598
:103B80001CB9FDF70CFC054601E0012500BF00BF94
:103B90000DB1012070BD0020FCE72DE9F041054684
:103BA0000E4617461C464FF0000814B90420BDE825
:103BB000F08195B9E2B239463046FEF7F6FB804611
:103BC00007E0FDF7ECFBE2B239463046FEF7EDFBCD
:103BD0008046B8F1000FF4D102E04FF0010800BFB9
:103BE00000BFB8F1000F01D10020E0E70120DEE7BF
:103BF0002DE9F04105460E4617461C464FF00008D9
:103C000014B90420BDE8F08195B9E2B239463046D6
:103C1000FEF715FC804607E0FDF7C1FBE2B239462E
:103C20003046FEF70CFC8046B8F1000FF4D102E0FC
:103C30004FF0010800BF00BFB8F1000F01D1002014
:103C4000E0E70120DEE72DE9F04706468946154604
:103C500046BBB9F1000F09D0B9F1010F13D0B9F18A
:103C6000020F05D0B9F1030F19D106E0002418E0C6
:103C70004FF400702860002413E01448B0F850009E
:103C8000288000240DE011484FF400720023D0E991
:103C90001271384603F0BDFA2860002401E00424C4
:103CA00000BF00E001242046BDE8F08700207047F7
:103CB00010B5044621460020FFF71FFF10BD10B5C8
:103CC000044621460020FFF708FF10BD48030020EE
:103CD00070B503460C4603E014F8015B03F8015B82
:103CE000151EA2F10102F7D170BD30B5034601E007
:103CF00003F8011B141EA2F10102F9D130BDF0B589
:103D000003461C460D46002000BF161EA2F101020C
:103D100007D014F8017B15F801CBA7EB0C06301E79
:103D2000F3D0F0BD024600E0521C107810B11078BC
:103D30008842F9D1107870472DE9F04104460027F8
:103D40002079F8B1E56A607801232A4604F1300150
:103D5000FFF74EFF08B1012714E000202071206A10
:103D6000281AA16988420DD2E67809E0A0690544C5
:103D7000607801232A4604F13001FFF739FF761EEF
:103D8000022EF3D23846BDE8F08170B504460D46E8
:103D90000026E06AA84210D02046FFF7CDFF064675
:103DA0005EB9607801232A4604F13001FFF7F5FE81
:103DB00010B14FF0FF350126E562304670BD70B599
:103DC00004462046FFF7B8FF0546002D59D120785C
:103DD00003284FD1607901284CD14202002104F11F
:103DE0003000FFF782FF552184F82E12AA2184F8B3
:103DF0002F12522084F830005221312001556121C8
:103E000032200155412133200155722184F81412CA
:103E100084F81512412184F81612612184F81712D2
:103E2000217C84F81812208A010A84F8191220696A
:103E3000010C84F81A122069010E84F81B12217BF0
:103E400084F81C12A089010A84F81D12E068010C94
:103E500084F81E12E068010E84F81F12E069401C0D
:103E6000E0626078012304F13001E26AFFF7C0FEEE
:103E700000206071607800221146FFF7E4FE00B177
:103E80000125284670BD0246891E5069801E884261
:103E900001D8002070479378906A01FB0300F9E78E
:103EA0002DE9F04705460C46022C02D36869A04272
:103EB00002D84FF0010969E04FF0FF392878012856
:103EC00004D002282ED003285CD13FE0274607EB20
:103ED0005707286A00EB57212846FFF756FF00B125
:103EE00053E038467F1CC0F3080105F1300010F89C
:103EF0000180286A00EB57212846FFF746FF00B1F2
:103F000043E0C7F3080105F13000405C48EA0028AF
:103F100004F0010010B14FEA181001E0C8F30B00E3
:103F2000814632E0286A00EB14212846FFF72DFF76
:103F300000B12AE040F2FF1000EA440105F1300030
:103F40000E183078717840EA01291EE0286A00EBEB
:103F5000D4112846FFF719FF00B116E040F2FF1018
:103F600000EA840105F130000E18F0780006B178FF
:103F700040EA0140717840EA01203178084320F09E
:103F8000704902E04FF0010900BF00BF4846BDE89C
:103F9000F0872DE9F04705460E461746022E02D35C
:103FA0006869B04202D84FF0020890E028780128F2
:103FB00004D0022844D003287ED159E0B14609EB51
:103FC0005909286A00EB59212846FFF7DEFE804692
:103FD000B8F1000F00D079E0484609F10109C0F3BB
:103FE000080105F130000C1806F0010020B1F9B20B
:103FF000207861F31F1000E03846207001202871FE
:10400000286A00EB59212846FFF7BFFE8046B8F129
:10401000000F00D05AE0C9F3080105F130000C1878
:1040200006F0010010B1C7F3071005E0207800F09A
:10403000F000C7F30321084320700120287145E0F8
:10404000286A00EB16212846FFF79FFE8046B8F14C
:10405000000F00D03AE040F2FF1000EA460105F1FF
:1040600030000C182770380A6070012028712DE08C
:10407000286A00EBD6112846FFF787FE8046B8F184
:10408000000F00D022E040F2FF1000EA860105F1A7
:1040900030000C18E0780006A17840EA0140617811
:1040A00040EA01202178084300F070400743277060
:1040B000380A6070380C00E005E0A070380EE0703F
:1040C0000120287102E04FF0020800BF00BF404607
:1040D000BDE8F0872DE9F04104460E46022E02D3DA
:1040E0006069B04201D8022727E0002721E031466D
:1040F0002046FFF7D5FE054605B91DE0012D01D18B
:10410000022719E0681C08B9012715E00022314692
:104110002046FFF73EFF074607B10DE02069401C2F
:1041200030B12069401C2061607940F0010060716D
:104130002E466069B042DAD800BF3846BDE8F0814B
:104140002DE9F04704468946B9F1000F06D1E7682A
:1041500017B16069B84215D8012713E049462046D7
:10416000FFF79EFE0646022E02D20120BDE8F08730
:10417000701C08B93046F9E76069B04201D9304691
:10418000F4E74F463D4600BF6D1C6069A84204D865
:104190000225BD4201D90020E8E729462046FFF765
:1041A0007FFE064606B909E0701C08B1012E01D158
:1041B0003046DBE7BD42E7D10020D7E700BF6FF014
:1041C000704229462046FFF7E4FE8046B8F1000F12
:1041D00008D1B9F1000F05D02A4649462046FFF71D
:1041E000D8FE8046B8F1000F0BD1E5602069401C75
:1041F00078B12069401E2061607940F00100607153
:1042000007E0B8F1010F02D14FF0FF3000E00120CC
:1042100005462846AAE770B503460D46586A021DB2
:10422000680A1E68B678B0FBF6F400BF02CA09B986
:10423000002070BD8C4200D202E0641A121DF5E726
:1042400000BF10682044F4E72DE9F04104460E4613
:10425000E680A568012D03D020684069A84202D8F5
:104260000220BDE8F0812DB920680078032801D133
:104270002068456A45B920680089B04201D802200B
:10428000EFE72068476A1EE0206880784FEA001850
:1042900012E029462068FFF703FE0546681C08B9AE
:1042A0000120DEE7022D03D320684069A84201D82F
:1042B0000220D6E7A6EB08064645EAD22946206842
:1042C000FFF7E1FD0746E5600FB90220C9E707EBFC
:1042D000161020612068303006F00F0100EB41100D
:1042E00060610020BDE72DE9F04104468846E08882
:1042F000461CB0B208B1206910B90420BDE8F081B5
:1043000006F00F0000286BD12069401C2061E06896
:1043100028B920680089B04262D80420EEE72068FE
:104320008078401E00EA1610002859D1E168206804
:10433000FFF7B6FD0546012D01D80220DEE7681C17
:1043400008B90120DAE720684069A84242D8B8F1EC
:10435000000F01D10420D1E7E1682068FFF7F0FEEB
:1043600005460DB90720C9E7012D01D10220C5E797
:10437000681C08B90120C1E72068FFF7DDFC08B11F
:104380000120BBE7216801F130004FF400720021E9
:10439000FFF7ABFC29462068FFF775FD2168C8626E
:1043A00000270EE00120216808712068FFF7C4FC97
:1043B00008B10120A2E72068C06A401C2168C862D9
:1043C0007F1C20688078B842ECD82068C06AC01B87
:1043D0002168C862E56029462068FFF754FD206126
:1043E000E6802068303006F00F0100EB411060617C
:1043F000002083E72DE9F04104460E4600212046C7
:10440000FFF722FF0546EDB9002700BF21692068AC
:10441000FFF7BBFC054605B113E060690078E528AD
:1044200002D06069007820B9781C0746B04201D1FB
:1044300007E0002701212046FFF755FF0546002D24
:10444000E4D000BF042D00D107252846BDE8F08147
:1044500010B502468C7ECB7E44EA03201378032BF2
:1044600005D10C7D4B7D44EA032340EA034010BD97
:1044700081760B0AC3760A0C02750B0E43757047E2
:104480002DE9F04705460C46207820F04000401EFC
:1044900000EB800101EBC00600274FF0010800BFD0
:1044A000FA48C05D205CF949C95D2144497840EA79
:1044B0000129B8F1000F10D0484602F089FE80466D
:1044C000FF2E07D23146761C35F8110002F080FE2F
:1044D000404508D00020BDE8F0874FF6FF708145C9
:1044E00001D00020F7E7781C07460D28D8D32078A4
:1044F00000F0400038B1B8F1000F04D035F81600D4
:1045000008B10020E7E70120E5E7F0B503460878A9
:1045100000F03F00401E00EB800707EBC0020025C3
:10452000012600BFD948405D085CD84F7F5D0F442D
:104530007F7840EA07244EB1FF2A01D30020F0BD66
:1045400026461046521C23F8104005E04FF6FF7037
:10455000844201D00020F2E7681C05460D28E1D313
:10456000087800F0400030B1FF2A01D30020E6E7D0
:10457000002023F812000120E1E7F0B504461D46B3
:104580004D730F27CF7200270F738F76BC4681F8CB
:104590001BC0571E07EB870C0CEBC70600273846DD
:1045A0003B4600BF4FF6FF77B84203D03746761C34
:1045B00034F81700DFF8D4C21CF803C001F80C006F
:1045C0000712DFF8C8C21CF803C08C448CF80170D5
:1045D00008B94FF6FF705F1C3B460D2FE2D34FF634
:1045E000FF77B84202D034F816700FB942F040029B
:1045F0000A70F0BD2DE9FF4F83B0074691461E4675
:104600000B2238460499FFF763FB052E19D9B046F3
:1046100012E039F802BB00250CE0584668F35F0051
:1046200080464FEA6B0B08F4803010B1984888EA56
:1046300000086D1C102DF0D3B9F800000028E8D157
:104640004646072500BF06F00F0000F1300ABAF118
:10465000390F03DD0AF1070000F0FF0A28466D1E3E
:1046600001A901F800A03609002EECD17E204855A2
:1046700000240BE0385D812807DB385DFE2804DC70
:10468000681EA04200D106E0641C641CAC4202D249
:10469000385D2028EED100BF00BF082D04D2284687
:1046A0006D1C01A9095C00E020212046641C3954DE
:1046B000082CF2D307B0BDE8F08F30B501460020DA
:1046C0000B2200BF431003EBC01411F8015B631908
:1046D000D8B2531E1A1EF5D130BD2DE9F04704465D
:1046E00000212046FFF7B0FD074617B13846BDE868
:1046F000F0874FF0FF09CA464FF6FF70208400BFD5
:1047000021692068FFF741FB074607B157E065695B
:104710002E780EB9042752E0E87A00F03F08E52E23
:1047200005D008F0080040B1B8F10F0F05D04FF0E8
:10473000FF094FF6FF7020843AE0B8F10F0F1CD14B
:10474000E06978B306F0400030B195F80DA026F08E
:104750004006B146E08820844E450AD1687B50452A
:1047600007D12946E069FFF78BFE10B1A9F10100DE
:1047700000E0FF2000F0FF091AE0B9F1000F05D1B9
:104780002846FFF79AFF504500D118E0A069C07A8B
:1047900000F0010038B90B222846A169FFF7AFFAF3
:1047A00008B90CE004E04FF0FF094FF6FF702084D9
:1047B00000212046FFF797FD0746002FA0D000BF3D
:1047C000384694E72DE9F05F04468A464FF0FF092A
:1047D000CB4604274FE021692068FFF7D6FA074649
:1047E00007B14BE0666935780DB9042746E0F07AE9
:1047F00000F03F08E52D0AD02E2D08D028F020002B
:10480000082801D1012000E00020504502D04FF0DF
:10481000FF0929E0B8F10F0F1AD105F0400030B1BF
:1048200096F80DB025F04005A946E08820844D4556
:104830000AD1707B584507D13146E069FFF765FE24
:1048400010B1A9F1010000E0FF2000F0FF090BE02A
:10485000B9F1000F04D13046FFF72FFF584502D0C1
:104860004FF6FF70208409E000212046FFF73BFD52
:10487000074607B102E020690028ACD100BF0FB1A4
:10488000002020613846BDE8F09F00008C770008CA
:10489000211001002DE9FE4F0446D4F81880D4F809
:1048A0001C900C2241466846FFF712FA00BF9DF8A3
:1048B0000B0000F0010020B3002088F80B00E0613D
:1048C00001260CE033464A4669464046FFF792FE11
:1048D0002046FFF702FF054605B102E0761C642E74
:1048E000F0D300BF642E02D10720BDE8FE8F042D57
:1048F00001D02846F9E79DF80B0088F80B00C4F8B2
:104900001C909DF80B0000F0020060B1002600E052
:10491000761C39F816000028FAD106F119000D218D
:10492000B0FBF1F700E0012739462046FFF762FDB2
:10493000054645BB781E071E25D0E088C11B2046D2
:10494000FFF782FC0546F5B9A069FFF7B6FE82467F
:1049500000BF21692068FFF718FA054605B111E08C
:10496000FAB253466169E069FFF707FE012021684A
:10497000087100212046FFF7B6FC054615B9781EE0
:10498000071EE6D100BFC5B921692068FFF7FDF910
:10499000054695B9202200216069FFF7A6F90B2290
:1049A000D4E90501FFF794F9A069C07A00F0180076
:1049B00061690873012021680871284695E770B580
:1049C0000446E688208C4FF6FF72904201D13046B3
:1049D00000E0208C01462046FFF736FC05460DBB63
:1049E00000BF21692068FFF7D0F9054605B115E041
:1049F000202200216069FFF778F9E52061690870DD
:104A0000012021680871E088B04200D306E000214F
:104A10002046FFF768FC0546002DE2D000BF042DBC
:104A200000D10225284670BD2DE9F05F80460D4675
:104A300005F10907D8F81000002843D0D8F8144031
:104A4000002626E03046761C14F80090B9F1200FBD
:104A500000D11EE0B9F1050F01D14FF0E509092E93
:104A600002D12E2007F8010BB9F1410F0EDBB9F18D
:104A70005A0F0BDC207B092E01D3102100E0082106
:104A8000084018B109F1200000F0FF0907F8019B68
:104A900000BF0B2ED6D3E07A2872E07F0106A07FFC
:104AA00041EA0041607F41EA0020217F08432860FD
:104AB000217E607E41EA0020A880A17DE07D41EA60
:104AC0000020E88000203870A86998B30026AF69FC
:104AD000D8F8100060B3E86950B3B8F820004FF67A
:104AE000FF71884224D0D8F81CB01BE0002150464A
:104AF00002F034FB8246BAF1000F01D1002616E025
:104B0000BAF1FF0F04DD4FEA2A223046761C3A54F0
:104B1000E869401EB04201D8002608E03046761C05
:104B200007F800A03BF8021BB1F1000ADED100BF7C
:104B30000020B855BDE8F09F2DE9F34F83B08146C2
:104B400004980068019002E00198401C01900198CF
:104B500000782F28F8D0019800785C28F4D0D9F894
:104B60001CA000252F4600BF38467F1C01990C5C15
:104B7000202C03DB2F2C01D05C2C00D132E0FF2D48
:104B800003D3062005B0BDE8F08FE4B2812C13DB1F
:104B9000E0B2FE2810DC38467F1C01990E5C06EB63
:104BA000042084B2402E01DB7E2E05DD802E01DB49
:104BB000FE2E01DD0620E5E70121204602F0CEFAB7
:104BC00004460CB90620DDE7802C06DA2146FCA05D
:104BD000FFF7A8F808B10620D4E728466D1C2AF88C
:104BE0001040C1E700BF0198C11904980160202C52
:104BF00001DA042000E00020804608E0681E3AF850
:104C00001040202C02D02E2C00D002E06D1E002D72
:104C1000F4D100BF0DB90620B4E700202AF8150032
:104C20000B222021D9F81800FFF75FF8002700E0D9
:104C30007F1C3AF817002028FAD03AF817002E28DF
:104C4000F6D00FB148F0030800E06D1E25B1681ED4
:104C50003AF810002E28F8D10020064602904FF0B6
:104C6000080B00BF38467F1C3AF8104004B963E0D7
:104C7000202C03D02E2C04D1AF4202D048F00308E0
:104C8000F0E70298584501D2AF4214D1BBF10B0FA7
:104C900002D148F003084FE0AF4201D048F00308CA
:104CA000AF4200D948E02F46082002904FF00B0B8E
:104CB000B006060ED6E7802C09DB204602F088FA03
:104CC0000021009002F04AFA044648F00208FF2C46
:104CD00011DDABF101000299884204D848F00308C5
:104CE000CDF808B0BEE72212D9F818300298411C5E
:104CF00002911A5419E024B12146B4A0FFF712F82A
:104D000018B15F2448F003080FE0412C04DB5A2C53
:104D100002DC46F0020608E0612C06DB7A2C04DC9B
:104D200046F00106A4F1200084B2D9F818300298A8
:104D3000411C02911C5495E700BFD9F81800007877
:104D4000E52803D10520D9F818100870BBF1080F29
:104D500001D1B006060E06F00C000C2803D006F0B8
:104D60000300032801D148F0020808F0020058B9F6
:104D700006F00300012801D148F0100806F00C00ED
:104D8000042801D148F00808D9F8180080F80B80F1
:104D90000020F7E62DE9F3410446019800782F281A
:104DA00003D0019800785C2802D10198401C019042
:104DB0000020A06001980078202807D2002120461A
:104DC000FFF742FA05460020606128E000BF01A914
:104DD0002046FFF7B1FE054605B11FE02046FFF76C
:104DE0007CFC0546A069C67A3DB1042D04D100BF04
:104DF00006F0040000B9052510E006F0040000B13B
:104E00000CE06769F87A00F0100008B9052505E0A4
:104E100039462068FFF71CFBA060D8E700BF284692
:104E2000BDE8FC8170B502464FF0FF301568E5B172
:104E3000116800E0491C0D78202D02D30D783A2D21
:104E4000F8D10D783A2D0FD1146814F8015BA5F153
:104E500030030A2B07D28C4205D1022B03D218460D
:104E60004D1C2946156070BD002000BFFBE770B5E2
:104E700004460D4600202071401EE062294620466F
:104E8000FEF783FF08B1032070BD94F82E1294F84A
:104E90002F0241EA00204AF65521884201D0022023
:104EA000F2E794F86900010694F8680041EA0041CD
:104EB00094F8670041EA002094F86610084320F057
:104EC0007F404449884201D10020DDE794F8850005
:104ED000010694F8840041EA004194F8830041EA15
:104EE000002094F88210084320F07F40394988421E
:104EF00001D10020C8E70120C6E72DE9F74F8AB0AD
:104F000000210A9801600B98FFF78CFF099009981F
:104F1000002803DA0B200DB0BDE8F08F2E49099868
:104F200051F820400CB90C20F5E70A98046020786D
:104F300078B16078FEF71EFE814609F0010040B9A5
:104F40000C9820B109F0040008B10A20E3E7002022
:104F5000E1E700202070099860706078FEF70DFE90
:104F6000814609F0010008B10320D4E70C9820B174
:104F700009F0040008B10A20CDE700273946204691
:104F8000FFF775FF0546012D01D0C5B941E00026A8
:104F900029E004F5F77000EB061898F80400E8B172
:104FA00098F80B00010698F80A0041EA004198F8C9
:104FB000090041EA002098F8081008430FE028E0B3
:104FC000222A3A3C3E3F7C7F000000002B2C3B3DD8
:104FD0005B5D0000464154008C000020002002A9C7
:104FE00041F82600761C042ED3D3002606B1761E87
:104FF00000BF02A850F8267027B139462046FFF7B7
:1050000036FF00E0022005461DB1701C064604284C
:10501000EFD3032D01D101207DE70DB10D207AE7FB
:105020003B20015D94F83C0041EA0020B0F5007F90
:1050300001D00D206FE74620015D94F8470041EA5A
:10504000002ABAF1000F0ED194F85700010694F827
:10505000560041EA004194F8550041EA002094F8D6
:10506000541040EA010AC4F818A04020005DE07026
:10507000E078012804D0E078022801D00D204AE72A
:10508000E0780AFB00FA3D20005DA070A07818B11E
:10509000A078411E084008B10D203CE74120015D89
:1050A00094F8420041EA00202081207A00F00F00AD
:1050B00008B10D202FE74320015D94F8440041EA38
:1050C00000200890089870B994F85300010694F8ED
:1050D000520041EA004194F8510041EA002094F85E
:1050E0005010084308903E20015D94F83F0041EACB
:1050F00000200190019808B90D200CE70198504458
:10510000218900EB11100790DDE90701814201D2EE
:105110000D2000E7DDE90710401AA178B0FBF1FB94
:10512000BBF1000F01D10D20F5E6012540F6F67028
:10513000834500D302254FF6F670834500D303253F
:105140000BF102006061E761019838442062079822
:105150003844A062032D16D1208908B10D20DAE66B
:1051600094F85F00010694F85E0041EA004194F86B
:105170005D0041EA002094F85C10084360626069B9
:105180008000069014E0208908B90D20C3E6206A4B
:1051900050446062022D02D16069400007E0207D2A
:1051A00000F00100616901EB410100EB5100069044
:1051B000A169069800F2FF10B1EB502F01D20D202B
:1051C000A9E64FF0FF302061E06080206071032D80
:1051D0005AD194F8601094F8610041EA0020012847
:1051E00052D1791C2046FEF7D0FDE8BB002060714B
:1051F00094F82E1294F82F0241EA00204AF6552125
:10520000884241D13320005D01063220005D41EA31
:1052100000413120005D41EA002094F8301008433D
:10522000FC49884230D194F81702010694F816021E
:1052300041EA004194F8150241EA002094F8141262
:105240000843F54988421FD194F81B02010694F8DF
:105250001A0241EA004194F8190241EA002094F848
:1052600018120843206100E00EE094F81F020106C6
:1052700094F81E0241EA004194F81D0241EA002020
:1052800094F81C120843E0602570E4480088401C34
:1052900080B2E2490880E08000203CE670B5054617
:1052A0002C464CB1206838B12068007820B12068C5
:1052B000C088A188884201D0092070BD2168487843
:1052C000FEF758FC00F0010008B10320F5E70020CC
:1052D000F3E7F7B582B016460398019001A8FFF7EF
:1052E000A1FD0546002D02DA0B2005B0F0BDCC482B
:1052F00050F825400CB100202070029810B1002019
:1053000002990870C649029841F82500029808B130
:10531000012E01D00020E8E7002203A902A8FFF730
:10532000ECFD07463846E0E72DE9F7478DB0054626
:1053300016461DB9092010B0BDE8F087002028608E
:1053400006F01F0626F001020EA904A8FFF7D5FDFE
:105350000746002F73D14FF40070FEF7A9FC814679
:10536000B9F1000F01D11120E5E7CDF82C9001A88B
:105370000A9004A80E99FFF70DFD0746099C0FB986
:1053800004B9062706F01C00002851D04FB1042FA5
:1053900003D104A8FFF77EFA074646F00806099CE9
:1053A00009E0E07A00F0110008B1072703E006F0F9
:1053B000040000B10827002F4AD106F00800002899
:1053C00046D0FEF773FC804684F80E804FEA182121
:1053D000E1734FEA184121744FEA186161740020AB
:1053E000E072207700216177A177E1772146049868
:1053F000FFF72EF8824600212046FFF739F80120FA
:1054000004990871BAF1000F22D00498D0F82C80CA
:1054100051460498FEF75EFE0746CFB9AAF1010097
:105420000499C86041460498FEF7AFFC07460FE0B8
:1054300077B9E07A00F0100010B1042708E031E0FD
:1054400006F0020020B1E07A00F0010000B1072769
:1054500047B906F0080008B146F020060498C06A73
:10546000E8612C624846FEF72AFCDFB9AE710020E5
:10547000E87121460498FEF7EBFF2861E07F010602
:10548000A07F41EA0041607F41EA0020217F08437C
:10549000E8600020A860A861686204982860286815
:1054A000C088A880384646E72DE9FF4F83B0044600
:1054B00015469A46DDF810B00020CAF800002046D4
:1054C000FFF7ECFE0290029818B1029807B0BDE811
:1054D000F08FE07908B1E079F8E7A07900F00100F9
:1054E00008B90720F2E7D4E90210401A00900098AA
:1054F000854200D9009DB3E02089C0F30800002850
:1055000076D120688078401EA16800EA512000F022
:10551000FF09B9F1000F1FD1A06810B920690190EF
:105520000CE0606A28B12046A168FEF774FE019085
:1055300004E061692068FEF7B3FC0190019802283D
:1055400002D20220E071C1E70198401C10B901208D
:10555000E071BBE70198606161692068FEF793FC28
:10556000064616B90220E071B0E74E444FEA5528CE
:10557000B8F1000F29D009EB08002168897888422A
:1055800003D920688078A0EB090821684878434651
:1055900032465946FEF701FB10B10120E07195E754
:1055A000A07900F0400068B1A069801B404509D295
:1055B000A169891B0BEB41204FF4007204F1280113
:1055C000FEF786FB4FEA482740E0A069B04229D0A9
:1055D000A07900F0400080B121684878012304F1EF
:1055E0002801A269FEF704FB18B10120E0716DE704
:1055F00019E0A07920F04000A071216848780123CB
:10560000324604F12801FEF7C8FA58B10120E071D2
:105610005CE70000525261417272416194000020C7
:105620008C000020A6612089C0F30800C0F5007737
:10563000AF4200D92F462089C0F3080204F12800A8
:1056400011183A465846FEF743FB00BFBB44A0681A
:105650003844A060DAF800003844CAF80000ED1BB6
:10566000002D7FF449AF002030E72DE9FF4F83B0D4
:10567000044615469B46049801900020CBF8000094
:105680002046FFF70BFE0290029818B1029807B06F
:10569000BDE8F08FE07908B1E079F8E7A07900F093
:1056A000020008B90720F2E7A0682844A1688842F0
:1056B00000D20025BEE02089C0F3080000287DD17B
:1056C00020688078401EA16800EA512000F0FF0A9F
:1056D000BAF1000F26D1A06838B9276997B900211F
:1056E0002068FEF72DFD07460CE0606A28B12046D1
:1056F000A168FEF790FD074604E061692068FEF7A7
:105700001FFD074607B998E0012F02D10220E07182
:10571000BDE7781C10B90120E071B8E76761206926
:1057200000B92761A07900F0400078B1216848787D
:10573000012304F12801A269FEF75AFA10B10120F1
:10574000E071A4E7A07920F04000A07161692068B1
:10575000FEF799FB064616B90220E07197E756441A
:105760004FEA5529B9F1000F2CD00AEB0900216846
:105770008978884203D920688078A0EB0A092168DB
:1057800048784B4632460199FEF732FA10B10120B3
:10579000E0717CE7A069801B48450ED2A069801BA0
:1057A000019A02EB40214FF4007204F12800FEF749
:1057B0008FFAA07920F04000A07100E016E04FEAD7
:1057C00049282AE0A069B0420FD0D4E902018842FA
:1057D0000BD2216848780123324604F12801FEF7F4
:1057E000DCF910B10120E07151E7A6612089C0F316
:1057F0000800C0F50078A84500D9A8462189C1F362
:10580000080204F12801501842460199FEF760FA97
:10581000A07940F04000A07100BF01984044019081
:10582000A0684044A060DBF800004044CBF80000D2
:10583000A5EB0805002D7FF43EAF00BFD4E90201BF
:10584000884201D9A068E060A07940F02000A071F2
:1058500000201CE72DE9F04104462046FFF71EFD1D
:105860000746002F4CD1A07900F02000002847D037
:10587000A07900F0400078B121684878012304F154
:105880002801A269FEF7B4F910B10120BDE8F0814A
:10589000A07920F04000A071E1692068FEF775FA58
:1058A0000746002F2CD1256AE87A40F02000E872E4
:1058B000207B2877A089010A6977E068010CA97725
:1058C000E068010EE97728462169FEF7D1FDFEF771
:1058D000EDF90646AE75310AE975310C2976310EBF
:1058E00069760020A8740021E974A07920F02000D6
:1058F000A0710120216808712068FEF760FA074650
:105900003846C3E770B505462846FFF7A3FF0446AF
:1059100034B92846FFF7C2FC04460CB900202860C1
:10592000204670BD2DE9F04F87B004460D46204655
:10593000FFF7B4FC0690069818B1069807B0BDE8CA
:10594000F08FE07908B1E079F8E7606A00287CD050
:10595000681C002843D1D4F824A05AF8040B019005
:1059600002200090276967B300BF029700200390D0
:105970000098801C009000BF04970398401C03907F
:1059800039462068FEF78CFA0746012F02D802201C
:10599000E071D3E7781C10B90120E071CEE70498DC
:1059A000401C8742E8D0DDE90001884205D8039811
:1059B0004AF8040B02984AF8040B20684069B84280
:1059C000D3D80098616A0860DDE90001884203D8F5
:1059D0000020CAF80000F9E011200690F6E0E06827
:1059E000A84200D2E568A560002DF4D0691E2046CB
:1059F000FEF711FC606161692068FEF744FA814698
:105A0000B9F1000F02D10220E07197E72068807899
:105A1000401E691E00EA512081442089C0F308001D
:105A20000028D8D0A0694845D5D0A07900F0400022
:105A300080B121684878012304F12801A269FEF7AA
:105A4000D7F818B10120E07178E712E0A07920F0D2
:105A50004000A0712168487801234A4604F12801DA
:105A6000FEF79BF810B10120E07167E7C4F81890C9
:105A7000ACE0E068A84204D2A07900F0020000B9CE
:105A8000E568A06805904FF0000BC4F808B0002D41
:105A900069D0206880784FEA4028059890B1681E48
:105AA000B0FBF8F10598401EB0FBF8F0814209D335
:105AB0000598401EA8F101018843A060A0682D1A36
:105AC000666912E026697EB900212068FEF738FB7E
:105AD0000646012E02D10220E0712FE7701C10B99A
